{
  "contractName": "ForgeBond",
  "abi": [
    {
      "inputs": [
        {
          "components": [
            {
              "internalType": "uint256",
              "name": "initialSupply",
              "type": "uint256"
            },
            {
              "internalType": "string",
              "name": "isinCode",
              "type": "string"
            },
            {
              "internalType": "string",
              "name": "name",
              "type": "string"
            },
            {
              "internalType": "string",
              "name": "symbol",
              "type": "string"
            },
            {
              "internalType": "uint256",
              "name": "denomination",
              "type": "uint256"
            },
            {
              "internalType": "uint256",
              "name": "divisor",
              "type": "uint256"
            },
            {
              "internalType": "uint256",
              "name": "startDate",
              "type": "uint256"
            },
            {
              "internalType": "uint256",
              "name": "initialMaturityDate",
              "type": "uint256"
            },
            {
              "internalType": "uint256",
              "name": "firstCouponDate",
              "type": "uint256"
            },
            {
              "internalType": "uint256",
              "name": "couponFrequencyInMonths",
              "type": "uint256"
            },
            {
              "internalType": "uint256",
              "name": "interestRateInBips",
              "type": "uint256"
            },
            {
              "internalType": "bool",
              "name": "callable",
              "type": "bool"
            },
            {
              "internalType": "bool",
              "name": "isSoftBullet",
              "type": "bool"
            },
            {
              "internalType": "uint256",
              "name": "softBulletPeriodInMonths",
              "type": "uint256"
            },
            {
              "internalType": "string",
              "name": "currency",
              "type": "string"
            },
            {
              "internalType": "address",
              "name": "registrar",
              "type": "address"
            },
            {
              "internalType": "address",
              "name": "settler",
              "type": "address"
            },
            {
              "internalType": "address",
              "name": "owner",
              "type": "address"
            }
          ],
          "internalType": "struct BasicTokenLibrary.BasicTokenInput",
          "name": "basicTokenInput",
          "type": "tuple"
        }
      ],
      "stateMutability": "nonpayable",
      "type": "constructor"
    },
    {
      "anonymous": false,
      "inputs": [
        {
          "indexed": true,
          "internalType": "address",
          "name": "_by",
          "type": "address"
        },
        {
          "indexed": true,
          "internalType": "address",
          "name": "_operator",
          "type": "address"
        }
      ],
      "name": "NewOperator",
      "type": "event"
    },
    {
      "anonymous": false,
      "inputs": [
        {
          "indexed": false,
          "internalType": "uint256",
          "name": "settlementTransactionId",
          "type": "uint256"
        },
        {
          "indexed": false,
          "internalType": "uint256",
          "name": "settlementTransactionOperationType",
          "type": "uint256"
        }
      ],
      "name": "PaymentReceived",
      "type": "event"
    },
    {
      "anonymous": false,
      "inputs": [
        {
          "indexed": false,
          "internalType": "uint256",
          "name": "settlementTransactionId",
          "type": "uint256"
        },
        {
          "indexed": false,
          "internalType": "uint256",
          "name": "settlementTransactionOperationType",
          "type": "uint256"
        }
      ],
      "name": "PaymentTransferred",
      "type": "event"
    },
    {
      "anonymous": false,
      "inputs": [
        {
          "indexed": false,
          "internalType": "uint256[]",
          "name": "settlementTransactionIds",
          "type": "uint256[]"
        }
      ],
      "name": "RedemptionInitiated",
      "type": "event"
    },
    {
      "anonymous": false,
      "inputs": [
        {
          "indexed": false,
          "internalType": "uint256",
          "name": "settlementTransactionId",
          "type": "uint256"
        }
      ],
      "name": "SettlementTransactionCanceled",
      "type": "event"
    },
    {
      "anonymous": false,
      "inputs": [
        {
          "indexed": false,
          "internalType": "uint256",
          "name": "settlementTransactionId",
          "type": "uint256"
        }
      ],
      "name": "SubscriptionInitiated",
      "type": "event"
    },
    {
      "anonymous": false,
      "inputs": [
        {
          "indexed": false,
          "internalType": "uint256",
          "name": "settlementTransactionId",
          "type": "uint256"
        }
      ],
      "name": "TradeInitiated",
      "type": "event"
    },
    {
      "anonymous": false,
      "inputs": [
        {
          "indexed": true,
          "internalType": "address",
          "name": "_from",
          "type": "address"
        },
        {
          "indexed": true,
          "internalType": "address",
          "name": "_to",
          "type": "address"
        },
        {
          "indexed": false,
          "internalType": "uint256",
          "name": "_value",
          "type": "uint256"
        }
      ],
      "name": "Transfer",
      "type": "event"
    },
    {
      "inputs": [],
      "name": "CANCELLED",
      "outputs": [
        {
          "internalType": "uint256",
          "name": "",
          "type": "uint256"
        }
      ],
      "stateMutability": "view",
      "type": "function"
    },
    {
      "inputs": [],
      "name": "CASH_TRANSFERRED",
      "outputs": [
        {
          "internalType": "uint256",
          "name": "",
          "type": "uint256"
        }
      ],
      "stateMutability": "view",
      "type": "function"
    },
    {
      "inputs": [],
      "name": "REGISTRAR_ROLE",
      "outputs": [
        {
          "internalType": "uint256",
          "name": "",
          "type": "uint256"
        }
      ],
      "stateMutability": "view",
      "type": "function"
    },
    {
      "inputs": [],
      "name": "SETTLER_ROLE",
      "outputs": [
        {
          "internalType": "uint256",
          "name": "",
          "type": "uint256"
        }
      ],
      "stateMutability": "view",
      "type": "function"
    },
    {
      "inputs": [],
      "name": "owner",
      "outputs": [
        {
          "internalType": "address",
          "name": "",
          "type": "address"
        }
      ],
      "stateMutability": "view",
      "type": "function"
    },
    {
      "inputs": [],
      "name": "settler",
      "outputs": [
        {
          "internalType": "address",
          "name": "",
          "type": "address"
        }
      ],
      "stateMutability": "view",
      "type": "function"
    },
    {
      "inputs": [],
      "name": "registrar",
      "outputs": [
        {
          "internalType": "address",
          "name": "",
          "type": "address"
        }
      ],
      "stateMutability": "view",
      "type": "function"
    },
    {
      "inputs": [],
      "name": "initialSupply",
      "outputs": [
        {
          "internalType": "uint256",
          "name": "",
          "type": "uint256"
        }
      ],
      "stateMutability": "view",
      "type": "function"
    },
    {
      "inputs": [],
      "name": "currentSupply",
      "outputs": [
        {
          "internalType": "uint256",
          "name": "",
          "type": "uint256"
        }
      ],
      "stateMutability": "view",
      "type": "function"
    },
    {
      "inputs": [],
      "name": "name",
      "outputs": [
        {
          "internalType": "string",
          "name": "",
          "type": "string"
        }
      ],
      "stateMutability": "view",
      "type": "function"
    },
    {
      "inputs": [],
      "name": "symbol",
      "outputs": [
        {
          "internalType": "string",
          "name": "",
          "type": "string"
        }
      ],
      "stateMutability": "view",
      "type": "function"
    },
    {
      "inputs": [],
      "name": "isinCode",
      "outputs": [
        {
          "internalType": "string",
          "name": "",
          "type": "string"
        }
      ],
      "stateMutability": "view",
      "type": "function"
    },
    {
      "inputs": [],
      "name": "denomination",
      "outputs": [
        {
          "internalType": "uint256",
          "name": "",
          "type": "uint256"
        }
      ],
      "stateMutability": "view",
      "type": "function"
    },
    {
      "inputs": [],
      "name": "divisor",
      "outputs": [
        {
          "internalType": "uint256",
          "name": "",
          "type": "uint256"
        }
      ],
      "stateMutability": "view",
      "type": "function"
    },
    {
      "inputs": [],
      "name": "startDate",
      "outputs": [
        {
          "internalType": "uint256",
          "name": "",
          "type": "uint256"
        }
      ],
      "stateMutability": "view",
      "type": "function"
    },
    {
      "inputs": [],
      "name": "maturityDate",
      "outputs": [
        {
          "internalType": "uint256",
          "name": "",
          "type": "uint256"
        }
      ],
      "stateMutability": "view",
      "type": "function"
    },
    {
      "inputs": [],
      "name": "currentMaturityDate",
      "outputs": [
        {
          "internalType": "uint256",
          "name": "",
          "type": "uint256"
        }
      ],
      "stateMutability": "view",
      "type": "function"
    },
    {
      "inputs": [],
      "name": "firstCouponDate",
      "outputs": [
        {
          "internalType": "uint256",
          "name": "",
          "type": "uint256"
        }
      ],
      "stateMutability": "view",
      "type": "function"
    },
    {
      "inputs": [],
      "name": "couponFrequencyInMonths",
      "outputs": [
        {
          "internalType": "uint256",
          "name": "",
          "type": "uint256"
        }
      ],
      "stateMutability": "view",
      "type": "function"
    },
    {
      "inputs": [],
      "name": "interestRateInBips",
      "outputs": [
        {
          "internalType": "uint256",
          "name": "",
          "type": "uint256"
        }
      ],
      "stateMutability": "view",
      "type": "function"
    },
    {
      "inputs": [],
      "name": "callable",
      "outputs": [
        {
          "internalType": "bool",
          "name": "",
          "type": "bool"
        }
      ],
      "stateMutability": "view",
      "type": "function"
    },
    {
      "inputs": [],
      "name": "isSoftBullet",
      "outputs": [
        {
          "internalType": "bool",
          "name": "",
          "type": "bool"
        }
      ],
      "stateMutability": "view",
      "type": "function"
    },
    {
      "inputs": [],
      "name": "softBulletPeriodInMonths",
      "outputs": [
        {
          "internalType": "uint256",
          "name": "",
          "type": "uint256"
        }
      ],
      "stateMutability": "view",
      "type": "function"
    },
    {
      "inputs": [],
      "name": "currency",
      "outputs": [
        {
          "internalType": "string",
          "name": "",
          "type": "string"
        }
      ],
      "stateMutability": "view",
      "type": "function"
    },
    {
      "inputs": [],
      "name": "state",
      "outputs": [
        {
          "internalType": "uint256",
          "name": "",
          "type": "uint256"
        }
      ],
      "stateMutability": "view",
      "type": "function"
    },
    {
      "inputs": [],
      "name": "getType",
      "outputs": [
        {
          "internalType": "string",
          "name": "",
          "type": "string"
        }
      ],
      "stateMutability": "view",
      "type": "function"
    },
    {
      "inputs": [
        {
          "internalType": "address",
          "name": "_owner",
          "type": "address"
        }
      ],
      "name": "balanceOf",
      "outputs": [
        {
          "internalType": "uint256",
          "name": "balance",
          "type": "uint256"
        }
      ],
      "stateMutability": "view",
      "type": "function"
    },
    {
      "inputs": [
        {
          "internalType": "address",
          "name": "_to",
          "type": "address"
        },
        {
          "internalType": "uint256",
          "name": "_value",
          "type": "uint256"
        }
      ],
      "name": "transfer",
      "outputs": [
        {
          "internalType": "bool",
          "name": "success",
          "type": "bool"
        }
      ],
      "stateMutability": "pure",
      "type": "function"
    },
    {
      "inputs": [],
      "name": "decimals",
      "outputs": [
        {
          "internalType": "uint8",
          "name": "",
          "type": "uint8"
        }
      ],
      "stateMutability": "pure",
      "type": "function"
    },
    {
      "inputs": [],
      "name": "totalSupply",
      "outputs": [
        {
          "internalType": "uint256",
          "name": "",
          "type": "uint256"
        }
      ],
      "stateMutability": "view",
      "type": "function"
    },
    {
      "inputs": [
        {
          "internalType": "uint256",
          "name": "quantity",
          "type": "uint256"
        }
      ],
      "name": "burn",
      "outputs": [],
      "stateMutability": "nonpayable",
      "type": "function"
    },
    {
      "inputs": [],
      "name": "getFullBalances",
      "outputs": [
        {
          "components": [
            {
              "internalType": "address",
              "name": "_address",
              "type": "address"
            },
            {
              "internalType": "uint256",
              "name": "_balance",
              "type": "uint256"
            },
            {
              "internalType": "uint256",
              "name": "_locked",
              "type": "uint256"
            }
          ],
          "internalType": "struct SecurityTokenBalancesLibrary.Balance[]",
          "name": "value",
          "type": "tuple[]"
        }
      ],
      "stateMutability": "view",
      "type": "function"
    },
    {
      "inputs": [
        {
          "internalType": "address",
          "name": "_address",
          "type": "address"
        }
      ],
      "name": "getBalance",
      "outputs": [
        {
          "internalType": "uint256",
          "name": "value",
          "type": "uint256"
        }
      ],
      "stateMutability": "view",
      "type": "function"
    },
    {
      "inputs": [
        {
          "internalType": "uint256",
          "name": "_roleName",
          "type": "uint256"
        },
        {
          "internalType": "address",
          "name": "_operatorAddress",
          "type": "address"
        }
      ],
      "name": "authorizeOperator",
      "outputs": [],
      "stateMutability": "nonpayable",
      "type": "function"
    },
    {
      "inputs": [
        {
          "internalType": "address",
          "name": "_operatorAddress",
          "type": "address"
        },
        {
          "internalType": "uint256",
          "name": "_roleName",
          "type": "uint256"
        }
      ],
      "name": "isOperatorWithRoleAuthorized",
      "outputs": [
        {
          "internalType": "bool",
          "name": "",
          "type": "bool"
        }
      ],
      "stateMutability": "view",
      "type": "function"
    },
    {
      "inputs": [
        {
          "internalType": "address",
          "name": "_operatorAddress",
          "type": "address"
        },
        {
          "internalType": "uint256",
          "name": "_roleName",
          "type": "uint256"
        }
      ],
      "name": "revokeOperatorAuthorization",
      "outputs": [],
      "stateMutability": "nonpayable",
      "type": "function"
    },
    {
      "inputs": [
        {
          "components": [
            {
              "internalType": "uint256",
              "name": "txId",
              "type": "uint256"
            },
            {
              "internalType": "uint256",
              "name": "operationId",
              "type": "uint256"
            },
            {
              "internalType": "address",
              "name": "deliverySenderAccountNumber",
              "type": "address"
            },
            {
              "internalType": "address",
              "name": "deliveryReceiverAccountNumber",
              "type": "address"
            },
            {
              "internalType": "uint256",
              "name": "deliveryQuantity",
              "type": "uint256"
            },
            {
              "internalType": "string",
              "name": "txHash",
              "type": "string"
            }
          ],
          "internalType": "struct SettlementRepositoryLibrary.PartialSettlementTransaction",
          "name": "partialSettlementTransaction",
          "type": "tuple"
        }
      ],
      "name": "initiateSubscription",
      "outputs": [],
      "stateMutability": "nonpayable",
      "type": "function"
    },
    {
      "inputs": [
        {
          "components": [
            {
              "internalType": "uint256",
              "name": "txId",
              "type": "uint256"
            },
            {
              "internalType": "uint256",
              "name": "operationId",
              "type": "uint256"
            },
            {
              "internalType": "address",
              "name": "deliverySenderAccountNumber",
              "type": "address"
            },
            {
              "internalType": "address",
              "name": "deliveryReceiverAccountNumber",
              "type": "address"
            },
            {
              "internalType": "uint256",
              "name": "deliveryQuantity",
              "type": "uint256"
            },
            {
              "internalType": "string",
              "name": "txHash",
              "type": "string"
            }
          ],
          "internalType": "struct SettlementRepositoryLibrary.PartialSettlementTransaction",
          "name": "partialSettlementTransaction",
          "type": "tuple"
        }
      ],
      "name": "initiateTrade",
      "outputs": [],
      "stateMutability": "nonpayable",
      "type": "function"
    },
    {
      "inputs": [
        {
          "internalType": "uint256",
          "name": "_settlementTransactionId",
          "type": "uint256"
        }
      ],
      "name": "confirmPaymentReceived",
      "outputs": [],
      "stateMutability": "nonpayable",
      "type": "function"
    },
    {
      "inputs": [
        {
          "internalType": "uint256",
          "name": "_settlementTransactionId",
          "type": "uint256"
        }
      ],
      "name": "confirmPaymentTransferred",
      "outputs": [],
      "stateMutability": "nonpayable",
      "type": "function"
    },
    {
      "inputs": [
        {
          "internalType": "uint256",
          "name": "_settlementTransactionId",
          "type": "uint256"
        }
      ],
      "name": "getCurrentState",
      "outputs": [
        {
          "internalType": "uint256",
          "name": "",
          "type": "uint256"
        }
      ],
      "stateMutability": "view",
      "type": "function"
    },
    {
      "inputs": [
        {
          "internalType": "uint256",
          "name": "_operationId",
          "type": "uint256"
        }
      ],
      "name": "getOperationType",
      "outputs": [
        {
          "internalType": "uint256",
          "name": "",
          "type": "uint256"
        }
      ],
      "stateMutability": "view",
      "type": "function"
    },
    {
      "inputs": [
        {
          "components": [
            {
              "internalType": "uint256",
              "name": "txId",
              "type": "uint256"
            },
            {
              "internalType": "uint256",
              "name": "operationId",
              "type": "uint256"
            },
            {
              "internalType": "address",
              "name": "deliverySenderAccountNumber",
              "type": "address"
            },
            {
              "internalType": "address",
              "name": "deliveryReceiverAccountNumber",
              "type": "address"
            },
            {
              "internalType": "uint256",
              "name": "deliveryQuantity",
              "type": "uint256"
            },
            {
              "internalType": "string",
              "name": "txHash",
              "type": "string"
            }
          ],
          "internalType": "struct SettlementRepositoryLibrary.PartialSettlementTransaction[]",
          "name": "partialSettlementTransactions",
          "type": "tuple[]"
        }
      ],
      "name": "initiateRedemption",
      "outputs": [],
      "stateMutability": "nonpayable",
      "type": "function"
    },
    {
      "inputs": [
        {
          "components": [
            {
              "internalType": "uint256",
              "name": "txId",
              "type": "uint256"
            },
            {
              "internalType": "uint256",
              "name": "operationId",
              "type": "uint256"
            },
            {
              "internalType": "address",
              "name": "deliverySenderAccountNumber",
              "type": "address"
            },
            {
              "internalType": "address",
              "name": "deliveryReceiverAccountNumber",
              "type": "address"
            },
            {
              "internalType": "uint256",
              "name": "deliveryQuantity",
              "type": "uint256"
            },
            {
              "internalType": "string",
              "name": "txHash",
              "type": "string"
            }
          ],
          "internalType": "struct SettlementRepositoryLibrary.PartialSettlementTransaction",
          "name": "partialSettlementTransaction",
          "type": "tuple"
        }
      ],
      "name": "cancelSettlementTransaction",
      "outputs": [],
      "stateMutability": "nonpayable",
      "type": "function"
    }
  ],
  "bytecode": "0x60806040523480156200001157600080fd5b5060405162002afd38038062002afd8339810160408190526200003491620004d9565b610220810151600080546001600160a01b0319166001600160a01b039092169190911790558051600181905560025560208082015180516200007b92600592019062000374565b5060408101518051620000979160039160209091019062000374565b5060608101518051620000b39160049160209091019062000374565b50610200810151600680546001600160a01b03199081166001600160a01b03938416179091556101e08301516007805490921690831617905560005460405163d29dde5760e01b815273__SecurityTokenBalancesLibrary__________9263d29dde57926200012e926008929190911690600401620006af565b60006040518083038186803b1580156200014757600080fd5b505af41580156200015c573d6000803e3d6000fd5b505060005460015460405163ec2a214f60e01b815273__SecurityTokenBalancesLibrary__________945063ec2a214f9350620001ac926008926001600160a01b0390911691600401620006c6565b60006040518083038186803b158015620001c557600080fd5b505af4158015620001da573d6000803e3d6000fd5b505050506080810151600c5560a0810151600d5560c0810151600e5560e0810151600f819055601055610100808201516011556101208201516012556101408201516013556101608201516014805461018085015160ff199091169215159290921761ff00191691151590920217905560016019556101c081015180516200026b9160179160209091019062000374565b506101a0810151601555600754604051639a48b94f60e01b815273__OperatorManagerLibrary________________91639a48b94f91620002bf91601a916001916001600160a01b03169060040162000690565b60006040518083038186803b158015620002d857600080fd5b505af4158015620002ed573d6000803e3d6000fd5b5050600654604051639a48b94f60e01b815273__OperatorManagerLibrary________________9350639a48b94f92506200033b91601a916002916001600160a01b03169060040162000690565b60006040518083038186803b1580156200035457600080fd5b505af415801562000369573d6000803e3d6000fd5b505050505062000764565b828054620003829062000711565b90600052602060002090601f016020900481019282620003a65760008555620003f1565b82601f10620003c157805160ff1916838001178555620003f1565b82800160010185558215620003f1579182015b82811115620003f1578251825591602001919060010190620003d4565b50620003ff92915062000403565b5090565b5b80821115620003ff576000815560010162000404565b80516001600160a01b03811681146200043257600080fd5b919050565b805180151581146200043257600080fd5b600082601f83011262000459578081fd5b81516001600160401b038111156200047557620004756200074e565b60206200048b601f8301601f19168201620006e5565b82815285828487010111156200049f578384fd5b835b83811015620004be578581018301518282018401528201620004a1565b83811115620004cf57848385840101525b5095945050505050565b600060208284031215620004eb578081fd5b81516001600160401b038082111562000502578283fd5b818401915061024080838703121562000519578384fd5b6200052481620006e5565b9050825181526020830151828111156200053c578485fd5b6200054a8782860162000448565b60208301525060408301518281111562000562578485fd5b620005708782860162000448565b60408301525060608301518281111562000588578485fd5b620005968782860162000448565b6060830152506080830151608082015260a083015160a082015260c083015160c082015260e083015160e0820152610100808401518183015250610120808401518183015250610140808401518183015250610160620005f881850162000437565b908201526101806200060c84820162000437565b908201526101a083810151908201526101c080840151838111156200062f578586fd5b6200063d8882870162000448565b8284015250506101e09150620006558284016200041a565b8282015261020091506200066b8284016200041a565b828201526102209150620006818284016200041a565b91810191909152949350505050565b92835260208301919091526001600160a01b0316604082015260600190565b9182526001600160a01b0316602082015260400190565b9283526001600160a01b03919091166020830152604082015260600190565b6040518181016001600160401b03811182821017156200070957620007096200074e565b604052919050565b6002810460018216806200072657607f821691505b602082108114156200074857634e487b7160e01b600052602260045260246000fd5b50919050565b634e487b7160e01b600052604160045260246000fd5b61238980620007746000396000f3fe608060405234801561001057600080fd5b50600436106102745760003560e01c80637445e85c11610151578063b5e1083b116100c3578063e3406ff611610087578063e3406ff614610486578063e5a6b10f14610499578063e96b3828146104a1578063ea1fa5c9146104b4578063f68e9553146104bc578063f8b2cb4f146103c557610274565b8063b5e1083b14610448578063c19d93fb14610450578063c4842b6c14610458578063d59624b41461046b578063e109ca7a1461047357610274565b80638da5cb5b116101155780638da5cb5b1461040d57806395d89b41146104155780639aa3504a1461041d578063a9059cbb14610425578063ab221a7614610438578063ae71dcdf1461044057610274565b80637445e85c146103d8578063771282f6146103e05780638876678d146103e85780638bca6d16146103fd5780638c8d0ce01461040557610274565b80633569a106116101ea5780635748c130116101ae5780635748c1301461037c57806361146a251461038f5780636392c885146103a25780636a2ab602146103b55780636ff58fdc146103bd57806370a08231146103c557610274565b80633569a10614610326578063367b13361461033b578063378dc3dc1461034e578063406357381461035657806342966c681461036957610274565b806315dae03e1161023c57806315dae03e146102dc57806316e0ff0b146102e457806318160ddd146102ec5780631f2dc5ef146102f45780632b20e397146102fc578063313ce5671461031157610274565b80630258ef151461027957806306fdde03146102975780630b97bc86146102ac5780630e02dd85146102c15780630ef745ad146102c9575b600080fd5b6102816104c4565b60405161028e9190611e77565b60405180910390f35b61029f6104d2565b60405161028e9190611e82565b6102b4610567565b60405161028e9190612125565b6102b461056d565b6102816102d7366004611a3d565b610573565b61029f610609565b6102b4610627565b6102b461062d565b6102b46106bd565b6103046106c3565b60405161028e9190611dbd565b6103196106d2565b60405161028e919061220f565b610339610334366004611a3d565b6106d7565b005b610339610349366004611d0d565b61077a565b6102b46107e0565b610339610364366004611bf5565b6107e6565b610339610377366004611cdd565b610937565b6102b461038a366004611cdd565b610a5c565b61033961039d366004611b4c565b610af9565b6102b46103b0366004611cdd565b610d3f565b610281610dd2565b6102b4610ddb565b6102b46103d3366004611a21565b610de1565b6102b4610e1e565b6102b4610e23565b6103f0610e29565b60405161028e9190611dd1565b6102b4610eb8565b61029f610ebe565b610304610ed0565b61029f610edf565b6102b4610ef1565b610281610433366004611a3d565b610ef7565b610304610eff565b6102b4610f0e565b6102b4610f13565b6102b4610f19565b610339610466366004611bf5565b610f1f565b6102b461108c565b610339610481366004611bf5565b611092565b610339610494366004611cdd565b6111ff565b61029f6113bb565b6103396104af366004611cdd565b6113cd565b6102b4611607565b6102b461160c565b601454610100900460ff1690565b6060600060030180546104e4906122c3565b80601f0160208091040260200160405190810160405280929190818152602001828054610510906122c3565b801561055d5780601f106105325761010080835404028352916020019161055d565b820191906000526020600020905b81548152906001019060200180831161054057829003601f168201915b5050505050905090565b600e5490565b60115490565b6040516368e6a87f60e01b815260009073__OperatorManagerLibrary________________906368e6a87f906105b290601a90879087906004016120e7565b60206040518083038186803b1580156105ca57600080fd5b505af41580156105de573d6000803e3d6000fd5b505050506040513d601f19601f820116820180604052508101906106029190611bd5565b9392505050565b604080518082019091526004815263109bdb9960e21b602082015290565b60125490565b604051632d0b0b2f60e21b815260009073__SecurityTokenBalancesLibrary__________9063b42c2cbc9061066890600890600401612125565b60206040518083038186803b15801561068057600080fd5b505af4158015610694573d6000803e3d6000fd5b505050506040513d601f19601f820116820180604052508101906106b89190611cf5565b905090565b600d5490565b6007546001600160a01b031690565b600090565b6000546001600160a01b0316331461070a5760405162461bcd60e51b815260040161070190611ed6565b60405180910390fd5b6040516354d5218d60e11b815273__OperatorManagerLibrary________________9063a9aa431a9061074690601a90869086906004016120e7565b60006040518083038186803b15801561075e57600080fd5b505af4158015610772573d6000803e3d6000fd5b505050505050565b6000546001600160a01b031633146107a45760405162461bcd60e51b815260040161070190611ed6565b604051639a48b94f60e01b815273__OperatorManagerLibrary________________90639a48b94f9061074690601a9086908690600401612106565b60015490565b6040516368e6a87f60e01b815273__OperatorManagerLibrary________________906368e6a87f9061082390601a9033906001906004016120e7565b60206040518083038186803b15801561083b57600080fd5b505af415801561084f573d6000803e3d6000fd5b505050506040513d601f19601f820116820180604052508101906108739190611bd5565b61088f5760405162461bcd60e51b815260040161070190611f19565b604051630dc72b5d60e01b815273__SettlementWorkflowLibrary_____________90630dc72b5d906108cc90601b9060009086906004016121e7565b60006040518083038186803b1580156108e457600080fd5b505af41580156108f8573d6000803e3d6000fd5b505082516040517f58423868d13880baacf8d444db40421a27f8cf1b9135279cb504a2ef9f6458c9935061092c9250612125565b60405180910390a150565b6040516368e6a87f60e01b815273__OperatorManagerLibrary________________906368e6a87f9061097490601a9033906001906004016120e7565b60206040518083038186803b15801561098c57600080fd5b505af41580156109a0573d6000803e3d6000fd5b505050506040513d601f19601f820116820180604052508101906109c49190611bd5565b6109e05760405162461bcd60e51b815260040161070190611f19565b600054604051630a3419e960e31b815273__SecurityTokenBalancesLibrary__________916351a0cf4891610a29916008916001600160a01b039091169086906004016120e7565b60006040518083038186803b158015610a4157600080fd5b505af4158015610a55573d6000803e3d6000fd5b5050505050565b6040516318366f3560e21b815260009073__SettlementRepositoryLibrary___________906360d9bcd490610a9990601b90869060040161216a565b60006040518083038186803b158015610ab157600080fd5b505af4158015610ac5573d6000803e3d6000fd5b505050506040513d6000823e601f3d908101601f19168201604052610aed9190810190611c28565b60a0015190505b919050565b6040516368e6a87f60e01b815273__OperatorManagerLibrary________________906368e6a87f90610b3690601a9033906001906004016120e7565b60206040518083038186803b158015610b4e57600080fd5b505af4158015610b62573d6000803e3d6000fd5b505050506040513d601f19601f82011682018060405250810190610b869190611bd5565b610ba25760405162461bcd60e51b815260040161070190611f19565b601954600311610bc45760405162461bcd60e51b815260040161070190611e95565b6000815167ffffffffffffffff811115610bee57634e487b7160e01b600052604160045260246000fd5b604051908082528060200260200182016040528015610c17578160200160208202803683370190505b50604051636de000cd60e01b815290915073__SettlementWorkflowLibrary_____________90636de000cd90610c5890601b906000908790600401612178565b60006040518083038186803b158015610c7057600080fd5b505af4158015610c84573d6000803e3d6000fd5b5050505060005b8251811015610cfd57828181518110610cb457634e487b7160e01b600052603260045260246000fd5b602002602001015160000151828281518110610ce057634e487b7160e01b600052603260045260246000fd5b602090810291909101015280610cf5816122fe565b915050610c8b565b5060036019556040517f1d13bbc19c4b8f9e6a70801e6ff012075a3f608962f7374206a6b0dafc19927190610d33908390611e33565b60405180910390a15050565b604051633767a86360e11b815260009073__SettlementRepositoryLibrary___________90636ecf50c690610d7c90601b90869060040161216a565b60206040518083038186803b158015610d9457600080fd5b505af4158015610da8573d6000803e3d6000fd5b505050506040513d601f19601f82011682018060405250810190610dcc9190611cf5565b92915050565b60145460ff1690565b60135490565b604051633ad61c6160e11b815260009073__SecurityTokenBalancesLibrary__________906375ac38c290610d7c90600890869060040161212e565b600281565b60025490565b604051634bb4caef60e01b815260609073__SecurityTokenBalancesLibrary__________90634bb4caef90610e6490600890600401612125565b60006040518083038186803b158015610e7c57600080fd5b505af4158015610e90573d6000803e3d6000fd5b505050506040513d6000823e601f3d908101601f191682016040526106b89190810190611a68565b600c5490565b6060600060050180546104e4906122c3565b6000546001600160a01b031690565b6060600060040180546104e4906122c3565b60155490565b600092915050565b6006546001600160a01b031690565b600581565b60105490565b60195490565b6040516368e6a87f60e01b815273__OperatorManagerLibrary________________906368e6a87f90610f5c90601a9033906001906004016120e7565b60206040518083038186803b158015610f7457600080fd5b505af4158015610f88573d6000803e3d6000fd5b505050506040513d601f19601f82011682018060405250810190610fac9190611bd5565b610fc85760405162461bcd60e51b815260040161070190611f19565b601954600311610fea5760405162461bcd60e51b815260040161070190611e95565b60405163231f261f60e11b815273__SettlementWorkflowLibrary_____________9063463e4c3e9061102790601b9060009086906004016121e7565b60006040518083038186803b15801561103f57600080fd5b505af4158015611053573d6000803e3d6000fd5b50506002601955505080516040517fc40a4f74d715da2ee96119fbf8d8da1df0f5b79e92c3fd855f1ddc102d51d0479161092c91612125565b600f5490565b6040516368e6a87f60e01b815273__OperatorManagerLibrary________________906368e6a87f906110cf90601a9033906001906004016120e7565b60206040518083038186803b1580156110e757600080fd5b505af41580156110fb573d6000803e3d6000fd5b505050506040513d601f19601f8201168201806040525081019061111f9190611bd5565b61113b5760405162461bcd60e51b815260040161070190611f19565b60195460031161115d5760405162461bcd60e51b815260040161070190611e95565b604051634e8226bf60e01b815273__SettlementWorkflowLibrary_____________90634e8226bf9061119a90601b9060009086906004016121e7565b60006040518083038186803b1580156111b257600080fd5b505af41580156111c6573d6000803e3d6000fd5b50506002601955505080516040517f0bed382b9aad3b5629da3f0660006b5b0ebaf727367204f573a175544a0f930d9161092c91612125565b6040516368e6a87f60e01b815273__OperatorManagerLibrary________________906368e6a87f9061123c90601a9033906002906004016120e7565b60206040518083038186803b15801561125457600080fd5b505af4158015611268573d6000803e3d6000fd5b505050506040513d601f19601f8201168201806040525081019061128c9190611bd5565b6112a85760405162461bcd60e51b81526004016107019061205e565b604051636b7a028960e11b815260009073__SettlementRepositoryLibrary___________9063d6f40512906112e590601b90869060040161216a565b60206040518083038186803b1580156112fd57600080fd5b505af4158015611311573d6000803e3d6000fd5b505050506040513d601f19601f820116820180604052508101906113359190611cf5565b9050600181141561134e5761134982611611565b61138a565b60028114156113605761134982611611565b60038114156113725761134982611611565b60405162461bcd60e51b8152600401610701906120a4565b7f4edf5b39e08b0c159ffd68891bacf2cc9020b9d4e9e807b91f94fe88c44353888282604051610d3392919061216a565b6060600c600b0180546104e4906122c3565b6040516368e6a87f60e01b815273__OperatorManagerLibrary________________906368e6a87f9061140a90601a9033906002906004016120e7565b60206040518083038186803b15801561142257600080fd5b505af4158015611436573d6000803e3d6000fd5b505050506040513d601f19601f8201168201806040525081019061145a9190611bd5565b6114765760405162461bcd60e51b81526004016107019061205e565b6040516318366f3560e21b815260009073__SettlementRepositoryLibrary___________906360d9bcd4906114b390601b90869060040161216a565b60006040518083038186803b1580156114cb57600080fd5b505af41580156114df573d6000803e3d6000fd5b505050506040513d6000823e601f3d908101601f191682016040526115079190810190611c28565b905060038160a001511461152d5760405162461bcd60e51b815260040161070190612001565b604051636b7a028960e11b815260009073__SettlementRepositoryLibrary___________9063d6f405129061156a90601b90879060040161216a565b60206040518083038186803b15801561158257600080fd5b505af4158015611596573d6000803e3d6000fd5b505050506040513d601f19601f820116820180604052508101906115ba9190611cf5565b90507f053764eb5868c9437cb422e347a630903116c4f033292aec07f12e7d99a4b5fe83826040516115ed92919061216a565b60405180910390a1611602601b84600461185f565b505050565b600481565b600181565b6040516318366f3560e21b815260009073__SettlementRepositoryLibrary___________906360d9bcd49061164e90601b90869060040161216a565b60006040518083038186803b15801561166657600080fd5b505af415801561167a573d6000803e3d6000fd5b505050506040513d6000823e601f3d908101601f191682016040526116a29190810190611c28565b905060028160a00151146116c85760405162461bcd60e51b815260040161070190611f61565b60408082015160608301516080840151925163481804cd60e11b815273__SecurityTokenBalancesLibrary__________93639030099a936117139360089391929091600401612145565b60006040518083038186803b15801561172b57600080fd5b505af415801561173f573d6000803e3d6000fd5b5050506020820151604051633767a86360e11b81526002925073__SettlementRepositoryLibrary___________91636ecf50c69161178391601b9160040161216a565b60206040518083038186803b15801561179b57600080fd5b505af41580156117af573d6000803e3d6000fd5b505050506040513d601f19601f820116820180604052508101906117d39190611cf5565b141561184e5760608101516080820151604051630a3419e960e31b815273__SecurityTokenBalancesLibrary__________926351a0cf489261181d9260089291906004016120e7565b60006040518083038186803b15801561183557600080fd5b505af4158015611849573d6000803e3d6000fd5b505050505b61185b601b83600361185f565b5050565b600181148061186e5750600281145b806118795750600381145b806118845750600481145b8061188f5750600581145b8061189a575060ff81145b6118b65760405162461bcd60e51b815260040161070190611fbe565b60009182526020929092526040902060050155565b8035610af48161233b565b8051610af48161233b565b600082601f8301126118f1578081fd5b81356119046118ff8261226b565b61221d565b818152846020838601011115611918578283fd5b816020850160208301379081016020019190915292915050565b600082601f830112611942578081fd5b81516119506118ff8261226b565b818152846020838601011115611964578283fd5b611975826020830160208701612293565b949350505050565b600060c0828403121561198e578081fd5b60405160c0810167ffffffffffffffff82821081831117156119b2576119b2612325565b8160405282935084358352602085013560208401526119d3604086016118cb565b60408401526119e4606086016118cb565b60608401526080850135608084015260a0850135915080821115611a0757600080fd5b50611a14858286016118e1565b60a0830152505092915050565b600060208284031215611a32578081fd5b81356106028161233b565b60008060408385031215611a4f578081fd5b8235611a5a8161233b565b946020939093013593505050565b60006020808385031215611a7a578182fd5b825167ffffffffffffffff80821115611a91578384fd5b818501915085601f830112611aa4578384fd5b8151611ab26118ff82612247565b818152848101908486016060808502870188018b1015611ad0578889fd5b8896505b84871015611b3d5780828c031215611aea578889fd5b604080518281018181108982111715611b0557611b05612325565b82528351611b128161233b565b8152838a01518a82015281840151918101919091528452600196909601959287019290810190611ad4565b50909998505050505050505050565b60006020808385031215611b5e578182fd5b823567ffffffffffffffff811115611b74578283fd5b8301601f81018513611b84578283fd5b8035611b926118ff82612247565b81815283810190838501865b84811015611bc757611bb58a88843589010161197d565b84529286019290860190600101611b9e565b509098975050505050505050565b600060208284031215611be6578081fd5b81518015158114610602578182fd5b600060208284031215611c06578081fd5b813567ffffffffffffffff811115611c1c578182fd5b6119758482850161197d565b600060208284031215611c39578081fd5b815167ffffffffffffffff80821115611c50578283fd5b9083019060e08286031215611c63578283fd5b611c6d60e061221d565b8251815260208301516020820152611c87604084016118d6565b6040820152611c98606084016118d6565b60608201526080830151608082015260a083015160a082015260c083015182811115611cc2578485fd5b611cce87828601611932565b60c08301525095945050505050565b600060208284031215611cee578081fd5b5035919050565b600060208284031215611d06578081fd5b5051919050565b60008060408385031215611d1f578182fd5b823591506020830135611d318161233b565b809150509250929050565b60008151808452611d54816020860160208601612293565b601f01601f19169290920160200192915050565b60008151835260208201516020840152604082015160018060a01b03808216604086015280606085015116606086015250506080820151608084015260a082015160c060a085015261197560c0850182611d3c565b6001600160a01b0391909116815260200190565b602080825282518282018190526000919060409081850190868401855b82811015611e2657815180516001600160a01b0316855286810151878601528501518585015260609093019290850190600101611dee565b5091979650505050505050565b6020808252825182820181905260009190848201906040850190845b81811015611e6b57835183529284019291840191600101611e4f565b50909695505050505050565b901515815260200190565b6000602082526106026020830184611d3c565b60208082526021908201527f496e737472756d656e7420616c72656164792066756c6c792072656465656d656040820152601960fa1b606082015260800190565b60208082526023908201527f4f6e6c79206973737565722063616e20706572666f726d20746869732061637460408201526234b7b760e91b606082015260800190565b60208082526028908201527f4f6e6c792061207265676973747261722063616e20706572666f726d20746869604082015267399030b1ba34b7b760c11b606082015260800190565b60208082526037908201527f54686520736574746c656d656e74207472616e73616374696f6e206973206e6f60408201527f7420696e20544f4b454e5f4c4f434b4544207374617465000000000000000000606082015260800190565b60208082526023908201527f43616e206e6f742073657420737461747573203a20496e76616c69642053746160408201526274757360e81b606082015260800190565b60208082526038908201527f54686520736574746c656d656e74207472616e73616374696f6e206973206e6f60408201527f7420696e20434153485f52454345495645442073746174650000000000000000606082015260800190565b60208082526026908201527f4f6e6c79206120736574746c65722063616e20706572666f726d20746869732060408201526530b1ba34b7b760d11b606082015260800190565b60208082526023908201527f496620796f752073656520746869732c2074686973206973207265616c6c792060408201526218985960ea1b606082015260800190565b9283526001600160a01b03919091166020830152604082015260600190565b92835260208301919091526001600160a01b0316604082015260600190565b90815260200190565b9182526001600160a01b0316602082015260400190565b9384526001600160a01b03928316602085015291166040830152606082015260800190565b918252602082015260400190565b600060608201858352602085818501526060604085015281855180845260808601915060808382028701019350828701855b828110156121d857607f198887030184526121c6868351611d68565b955092840192908401906001016121aa565b50939998505050505050505050565b6000848252836020830152606060408301526122066060830184611d68565b95945050505050565b60ff91909116815260200190565b60405181810167ffffffffffffffff8111828210171561223f5761223f612325565b604052919050565b600067ffffffffffffffff82111561226157612261612325565b5060209081020190565b600067ffffffffffffffff82111561228557612285612325565b50601f01601f191660200190565b60005b838110156122ae578181015183820152602001612296565b838111156122bd576000848401525b50505050565b6002810460018216806122d757607f821691505b602082108114156122f857634e487b7160e01b600052602260045260246000fd5b50919050565b600060001982141561231e57634e487b7160e01b81526011600452602481fd5b5060010190565b634e487b7160e01b600052604160045260246000fd5b6001600160a01b038116811461235057600080fd5b5056fea2646970667358221220b8b12d4edf991c88d60fb14d3307e2787a1584707771801833abf365095c352c64736f6c63430008000033",
  "immutableReferences": {},
  "source": "pragma solidity 0.8.0;\npragma experimental ABIEncoderV2;\nimport \"../libraries/BasicTokenLibrary.sol\";\nimport \"../libraries/OperatorManagerLibrary.sol\";\nimport \"../libraries/SecurityTokenBalancesLibrary.sol\";\nimport \"../libraries/IterableBalances.sol\";\nimport \"../libraries/SettlementRepositoryLibrary.sol\";\nimport \"../libraries/SettlementWorkflowLibrary.sol\";\nimport \"../interfaces/IBasicToken.sol\";\nimport \"../interfaces/IInstrument.sol\";\nimport \"../interfaces/IOperatorManager.sol\";\nimport \"../interfaces/ISettlement.sol\";\n\ncontract ForgeBond is IBasicToken, IOperatorManager, ISettlement, IInstrument {\n    using BasicTokenLibrary for BasicTokenLibrary.BasicToken;\n    using BasicTokenLibrary for BasicTokenLibrary.Bond;\n\n    using SecurityTokenBalancesLibrary for SecurityTokenBalancesLibrary.SecurityTokenBalances;\n    using OperatorManagerLibrary for OperatorManagerLibrary.OperatorManager;\n    using SettlementRepositoryLibrary for SettlementRepositoryLibrary.SettlementTransactionRepository;\n\n    BasicTokenLibrary.BasicToken private token;\n    BasicTokenLibrary.Bond private bond;\n    OperatorManagerLibrary.OperatorManager private operatorManager;\n    SettlementRepositoryLibrary.SettlementTransactionRepository\n        private settlementTransactionRepository;\n\n    uint256 public constant REGISTRAR_ROLE = 0x01;\n    uint256 public constant SETTLER_ROLE = 0x02;\n\n    // bond state Type\n    uint256 private constant STATE_CREATED = 0x01;\n    uint256 private constant STATE_RUNNING = 0x02;\n    uint256 private constant STATE_REDEEMED = 0x03;\n\n    // operation Type\n    uint256 private constant SUBSCRIPTION = 0x01;\n    uint256 private constant REDEMPTION = 0x02;\n    uint256 private constant TRADE = 0x03;\n\n    // Settlement Status\n    uint256 private constant CREATED = 0x01;\n    uint256 private constant TOKEN_LOCKED = 0x02;\n    uint256 private constant CASH_RECEIVED = 0x03;\n    uint256 public constant CASH_TRANSFERRED = 0x04;\n    uint256 public constant CANCELLED = 0x05;\n    uint256 private constant ERROR = 0xFF;\n\n    event Transfer(address indexed _from, address indexed _to, uint256 _value); // Only for erc20 explorer\n\n    constructor(BasicTokenLibrary.BasicTokenInput memory basicTokenInput)\n        public\n    {\n        token.owner = basicTokenInput.owner;\n        token.initialSupply = basicTokenInput.initialSupply;\n        token.currentSupply = basicTokenInput.initialSupply;\n        token.isinCode = basicTokenInput.isinCode;\n        token.name = basicTokenInput.name;\n        token.symbol = basicTokenInput.symbol;\n        token.settler = basicTokenInput.settler;\n        token.registrar = basicTokenInput.registrar;\n        token.securityTokenBalances.setIssuer(token.owner);\n        token.securityTokenBalances.mint(token.owner, token.initialSupply);\n        bond.denomination = basicTokenInput.denomination;\n        bond.divisor = basicTokenInput.divisor;\n        bond.startDate = basicTokenInput.startDate;\n        bond.maturityDate = basicTokenInput.initialMaturityDate;\n        bond.currentMaturityDate = bond.maturityDate;\n        bond.firstCouponDate = basicTokenInput.firstCouponDate;\n        bond.couponFrequencyInMonths = basicTokenInput.couponFrequencyInMonths;\n        bond.interestRateInBips = basicTokenInput.interestRateInBips;\n        bond.callable = basicTokenInput.callable;\n        bond.isSoftBullet = basicTokenInput.isSoftBullet;\n        bond.state = STATE_CREATED;\n        bond.currency = basicTokenInput.currency;\n        bond.softBulletPeriodInMonths = basicTokenInput\n            .softBulletPeriodInMonths;\n        operatorManager.authorizeOperator(REGISTRAR_ROLE, token.registrar);\n        operatorManager.authorizeOperator(SETTLER_ROLE, token.settler);\n    }\n\n    // Basic Token\n    function owner() public view returns (address) {\n        return token.owner;\n    }\n\n    function settler() public view returns (address) {\n        return token.settler;\n    }\n\n    function registrar() public view returns (address) {\n        return token.registrar;\n    }\n\n    function initialSupply() public view returns (uint256) {\n        return token.initialSupply;\n    }\n\n    function currentSupply() public view returns (uint256) {\n        return token.currentSupply;\n    }\n\n    function name() public view returns (string memory) {\n        return token.name;\n    }\n\n    function symbol() public view returns (string memory) {\n        return token.symbol;\n    }\n\n    function isinCode() public view returns (string memory) {\n        return token.isinCode;\n    }\n\n    // Bond\n    function denomination() public view returns (uint256) {\n        return bond.denomination;\n    }\n\n    function divisor() public view returns (uint256) {\n        return bond.divisor;\n    }\n\n    function startDate() public view returns (uint256) {\n        return bond.startDate;\n    }\n\n    function maturityDate() public view returns (uint256) {\n        return bond.maturityDate;\n    }\n\n    function currentMaturityDate() public view returns (uint256) {\n        return bond.currentMaturityDate;\n    }\n\n    function firstCouponDate() public view returns (uint256) {\n        return bond.firstCouponDate;\n    }\n\n    function couponFrequencyInMonths() public view returns (uint256) {\n        return bond.couponFrequencyInMonths;\n    }\n\n    function interestRateInBips() public view returns (uint256) {\n        return bond.interestRateInBips;\n    }\n\n    function callable() public view returns (bool) {\n        return bond.callable;\n    }\n\n    function isSoftBullet() public view returns (bool) {\n        return bond.isSoftBullet;\n    }\n\n    function softBulletPeriodInMonths() public view returns (uint256) {\n        return bond.softBulletPeriodInMonths;\n    }\n\n    function currency() public view returns (string memory) {\n        return bond.currency;\n    }\n\n    function state() public view returns (uint256) {\n        return bond.state;\n    }\n\n    function getType() public view override returns (string memory) {\n        return \"Bond\";\n    }\n\n    // Modifiers\n    modifier issuerOnly() {\n        require(\n            msg.sender == token.owner,\n            \"Only issuer can perform this action\"\n        );\n        _;\n    }\n\n    modifier registrarOnly() {\n        require(\n            operatorManager.isOperatorWithRoleAuthorized(\n                msg.sender,\n                REGISTRAR_ROLE\n            ),\n            \"Only a registrar can perform this action\"\n        );\n        _;\n    }\n\n    modifier settlerOnly() {\n        require(\n            operatorManager.isOperatorWithRoleAuthorized(\n                msg.sender,\n                SETTLER_ROLE\n            ),\n            \"Only a settler can perform this action\"\n        );\n        _;\n    }\n\n    // [ERC-20] Only\n    function balanceOf(address _owner) public view returns (uint256 balance) {\n        return token.securityTokenBalances.getBalance(_owner);\n    }\n\n    function transfer(address _to, uint256 _value)\n        public\n        pure\n        returns (bool success)\n    {\n        return false;\n    }\n\n    function decimals() public pure returns (uint8) {\n        return 0;\n    }\n\n    function totalSupply() public view returns (uint256) {\n        return token.securityTokenBalances.totalSupply();\n    }\n\n    function burn(uint256 quantity) public registrarOnly {\n        token.securityTokenBalances.burn(token.owner, quantity);\n    }\n\n    // IBasicToken\n\n    function getFullBalances()\n        public\n        view\n        returns (SecurityTokenBalancesLibrary.Balance[] memory value)\n    {\n        return token.securityTokenBalances.getFullBalances();\n    }\n\n    function getBalance(address _address) public view returns (uint256 value) {\n        return token.securityTokenBalances.getBalance(_address);\n    }\n\n    // IOperatorManager\n    function authorizeOperator(uint256 _roleName, address _operatorAddress)\n        public\n        override\n        issuerOnly\n    {\n        operatorManager.authorizeOperator(_roleName, _operatorAddress);\n    }\n\n    function isOperatorWithRoleAuthorized(\n        address _operatorAddress,\n        uint256 _roleName\n    ) public view override returns (bool) {\n        return\n            operatorManager.isOperatorWithRoleAuthorized(\n                _operatorAddress,\n                _roleName\n            );\n    }\n\n    function revokeOperatorAuthorization(\n        address _operatorAddress,\n        uint256 _roleName\n    ) public override issuerOnly {\n        operatorManager.revokeOperatorAuthorization(\n            _operatorAddress,\n            _roleName\n        );\n    }\n\n    // ISettlement\n    function initiateSubscription(\n        SettlementRepositoryLibrary.PartialSettlementTransaction\n            memory partialSettlementTransaction\n    ) public override registrarOnly {\n        require(\n            bond.state < STATE_REDEEMED,\n            \"Instrument already fully redeemed\"\n        );\n        SettlementWorkflowLibrary.initiateSubscription(\n            settlementTransactionRepository,\n            token,\n            partialSettlementTransaction\n        );\n        bond.state = STATE_RUNNING;\n        emit SubscriptionInitiated(partialSettlementTransaction.txId);\n    }\n\n    function initiateTrade(\n        SettlementRepositoryLibrary.PartialSettlementTransaction\n            memory partialSettlementTransaction\n    ) public override registrarOnly {\n        require(\n            bond.state < STATE_REDEEMED,\n            \"Instrument already fully redeemed\"\n        );\n        SettlementWorkflowLibrary.initiateTrade(\n            settlementTransactionRepository,\n            token,\n            partialSettlementTransaction\n        );\n        bond.state = STATE_RUNNING;\n        emit TradeInitiated(partialSettlementTransaction.txId);\n    }\n\n    function confirmPaymentReceived(uint256 _settlementTransactionId)\n        external\n        override\n        settlerOnly\n    {\n        uint256 settlementTransactionOperationType = settlementTransactionRepository\n                .getOperationTypeForSettlementTransaction(\n                    _settlementTransactionId\n                );\n\n        if (settlementTransactionOperationType == SUBSCRIPTION) {\n            handleConfirmPaymentReceived(_settlementTransactionId);\n        } else if (settlementTransactionOperationType == REDEMPTION) {\n            handleConfirmPaymentReceived(_settlementTransactionId);\n        } else if (settlementTransactionOperationType == TRADE) {\n            handleConfirmPaymentReceived(_settlementTransactionId);\n        } else {\n            revert(\"If you see this, this is really bad\");\n        }\n\n        emit PaymentReceived(\n            _settlementTransactionId,\n            settlementTransactionOperationType\n        );\n    }\n\n    function handleConfirmPaymentReceived(uint256 settlementTransactionId)\n        internal\n    {\n        SettlementRepositoryLibrary.SettlementTransaction\n            memory st = settlementTransactionRepository\n                .getSettlementTransactionById(settlementTransactionId);\n\n        require(\n            st.status == TOKEN_LOCKED,\n            \"The settlement transaction is not in TOKEN_LOCKED state\"\n        );\n\n        token.securityTokenBalances.transferLocked(\n            st.deliverySenderAccountNumber,\n            st.deliveryReceiverAccountNumber,\n            st.deliveryQuantity\n        );\n\n        if (\n            settlementTransactionRepository.getOperationType(st.operationId) ==\n            REDEMPTION\n        ) {\n            token.securityTokenBalances.burn(\n                st.deliveryReceiverAccountNumber,\n                st.deliveryQuantity\n            );\n        }\n\n        settlementTransactionRepository.setSettlementTransactionStatus(\n            settlementTransactionId,\n            CASH_RECEIVED\n        );\n    }\n\n    function confirmPaymentTransferred(uint256 _settlementTransactionId)\n        external\n        override\n        settlerOnly\n    {\n        SettlementRepositoryLibrary.SettlementTransaction\n            memory st = settlementTransactionRepository\n                .getSettlementTransactionById(_settlementTransactionId);\n\n        require(\n            st.status == CASH_RECEIVED,\n            \"The settlement transaction is not in CASH_RECEIVED state\"\n        );\n\n        uint256 settlementTransactionOperationType = settlementTransactionRepository\n                .getOperationTypeForSettlementTransaction(\n                    _settlementTransactionId\n                );\n        emit PaymentTransferred(\n            _settlementTransactionId,\n            settlementTransactionOperationType\n        );\n\n        settlementTransactionRepository.setSettlementTransactionStatus(\n            _settlementTransactionId,\n            CASH_TRANSFERRED\n        );\n    }\n\n    function getCurrentState(uint256 _settlementTransactionId)\n        external\n        view\n        returns (uint256)\n    {\n        return\n            settlementTransactionRepository\n                .getSettlementTransactionById(_settlementTransactionId)\n                .status;\n    }\n\n    function getOperationType(uint256 _operationId)\n        external\n        view\n        returns (uint256)\n    {\n        return settlementTransactionRepository.getOperationType(_operationId);\n    }\n\n    function initiateRedemption(\n        SettlementRepositoryLibrary.PartialSettlementTransaction[]\n            memory partialSettlementTransactions\n    ) public override registrarOnly {\n        require(\n            bond.state < STATE_REDEEMED,\n            \"Instrument already fully redeemed\"\n        );\n        uint256[] memory ids = new uint256[](\n            partialSettlementTransactions.length\n        );\n\n        SettlementWorkflowLibrary.initiateRedemption(\n            settlementTransactionRepository,\n            token,\n            partialSettlementTransactions\n        );\n\n        for (uint256 i = 0; i < partialSettlementTransactions.length; i++) {\n            ids[i] = partialSettlementTransactions[i].txId;\n        }\n        bond.state = STATE_REDEEMED;\n        emit RedemptionInitiated(ids);\n    }\n\n    function cancelSettlementTransaction(\n        SettlementRepositoryLibrary.PartialSettlementTransaction\n            memory partialSettlementTransaction\n    ) public override registrarOnly {\n        SettlementWorkflowLibrary.cancelSettlementTransaction(\n            settlementTransactionRepository,\n            token,\n            partialSettlementTransaction\n        );\n\n        emit SettlementTransactionCanceled(partialSettlementTransaction.txId);\n    }\n}\n",
  "sourcePath": "/home/helder/Documents/cast1/packages/cast/cast-eth-v1/contracts/tokens/ForgeBond.sol",
  "compiler": {
    "name": "solc",
    "version": "0.8.0+commit.c7dfd78e.Emscripten.clang"
  },
  "schemaVersion": "3.4.3",
  "updatedAt": "2022-05-02T09:35:32.694Z",
  "networkType": "ethereum",
  "devdoc": {
    "kind": "dev",
    "methods": {},
    "version": 1
  },
  "userdoc": {
    "kind": "user",
    "methods": {},
    "version": 1
  }
}