{
  "contractName": "ForgeStructuredProductFactory",
  "abi": [
    {
      "inputs": [
        {
          "internalType": "address",
          "name": "owner",
          "type": "address"
        }
      ],
      "stateMutability": "nonpayable",
      "type": "constructor"
    },
    {
      "anonymous": false,
      "inputs": [],
      "name": "InstrumentCreated",
      "type": "event"
    },
    {
      "inputs": [],
      "name": "createStructuredProduct",
      "outputs": [
        {
          "internalType": "string",
          "name": "",
          "type": "string"
        }
      ],
      "stateMutability": "view",
      "type": "function"
    }
  ],
  "bytecode": "0x608060405234801561001057600080fd5b5060405161020038038061020083398101604081905261002f91610054565b600080546001600160a01b0319166001600160a01b0392909216919091179055610082565b600060208284031215610065578081fd5b81516001600160a01b038116811461007b578182fd5b9392505050565b61016f806100916000396000f3fe608060405234801561001057600080fd5b506004361061002b5760003560e01c80630c025b7514610030575b600080fd5b61003861004e565b60405161004591906100af565b60405180910390f35b6000546060906001600160a01b031633146100845760405162461bcd60e51b815260040161007b90610102565b60405180910390fd5b5060408051808201909152601081526f115e1c1958dd1959081d1bc819985a5b60821b602082015290565b6000602080835283518082850152825b818110156100db578581018301518582016040015282016100bf565b818111156100ec5783604083870101525b50601f01601f1916929092016040019392505050565b6020808252601f908201527f43616c6c6572206973206e6f742074686520666163746f7279206f776e65720060408201526060019056fea2646970667358221220120ed6a48a6ba762aa361eb143274b23d5e83f96bed985c027eaa8299900ba8f64736f6c63430008000033",
  "immutableReferences": {},
  "source": "pragma solidity 0.8.0;\n\nimport \"./AbstractInstrumentFactory.sol\";\nimport \"./interfaces/ITokenRegistry.sol\";\nimport \"./tokens/ForgeBond.sol\";\nimport \"./ForgeInstrumentRegistry.sol\";\n\ncontract ForgeStructuredProductFactory is AbstractInstrumentFactory {\n    constructor(address owner) public AbstractInstrumentFactory(owner) {}\n\n    function createStructuredProduct()\n        public\n        view\n        onlyOwner\n        returns (string memory)\n    {\n        return \"Expected to fail\";\n    }\n}\n",
  "sourcePath": "/home/helder/Documents/cast1/packages/cast/cast-eth-v1/contracts/ForgeStructuredProductFactory.sol",
  "compiler": {
    "name": "solc",
    "version": "0.8.0+commit.c7dfd78e.Emscripten.clang"
  },
  "schemaVersion": "3.4.3",
  "updatedAt": "2022-05-02T09:34:45.037Z",
  "devdoc": {
    "kind": "dev",
    "methods": {},
    "version": 1
  },
  "userdoc": {
    "kind": "user",
    "methods": {},
    "version": 1
  }
}