{
  "contractName": "ForgeInstrumentRegistry",
  "abi": [
    {
      "inputs": [
        {
          "internalType": "address",
          "name": "_owner",
          "type": "address"
        }
      ],
      "stateMutability": "nonpayable",
      "type": "constructor"
    },
    {
      "anonymous": false,
      "inputs": [
        {
          "indexed": false,
          "internalType": "string",
          "name": "name",
          "type": "string"
        },
        {
          "indexed": false,
          "internalType": "string",
          "name": "isin",
          "type": "string"
        },
        {
          "indexed": false,
          "internalType": "address",
          "name": "instrumentAddress",
          "type": "address"
        }
      ],
      "name": "InstrumentListed",
      "type": "event"
    },
    {
      "anonymous": false,
      "inputs": [
        {
          "indexed": false,
          "internalType": "string",
          "name": "name",
          "type": "string"
        },
        {
          "indexed": false,
          "internalType": "string",
          "name": "isin",
          "type": "string"
        },
        {
          "indexed": false,
          "internalType": "address",
          "name": "instrumentAddress",
          "type": "address"
        }
      ],
      "name": "InstrumentUnlisted",
      "type": "event"
    },
    {
      "inputs": [
        {
          "internalType": "string",
          "name": "",
          "type": "string"
        }
      ],
      "name": "factories",
      "outputs": [
        {
          "internalType": "address",
          "name": "",
          "type": "address"
        }
      ],
      "stateMutability": "view",
      "type": "function",
      "constant": true
    },
    {
      "inputs": [],
      "name": "getAllFactoryTypes",
      "outputs": [
        {
          "internalType": "string[]",
          "name": "",
          "type": "string[]"
        }
      ],
      "stateMutability": "view",
      "type": "function",
      "constant": true
    },
    {
      "inputs": [
        {
          "internalType": "string",
          "name": "factoryType",
          "type": "string"
        }
      ],
      "name": "getFactory",
      "outputs": [
        {
          "internalType": "address",
          "name": "",
          "type": "address"
        }
      ],
      "stateMutability": "view",
      "type": "function",
      "constant": true
    },
    {
      "inputs": [
        {
          "internalType": "string",
          "name": "factoryType",
          "type": "string"
        },
        {
          "internalType": "address",
          "name": "factoryAddress",
          "type": "address"
        }
      ],
      "name": "authorizeFactory",
      "outputs": [],
      "stateMutability": "nonpayable",
      "type": "function"
    },
    {
      "inputs": [
        {
          "internalType": "address",
          "name": "factoryAddress",
          "type": "address"
        }
      ],
      "name": "unAuthorizeFactory",
      "outputs": [],
      "stateMutability": "nonpayable",
      "type": "function"
    },
    {
      "inputs": [
        {
          "internalType": "address",
          "name": "factoryAddress",
          "type": "address"
        }
      ],
      "name": "isFactoryAuthorized",
      "outputs": [
        {
          "internalType": "bool",
          "name": "",
          "type": "bool"
        }
      ],
      "stateMutability": "view",
      "type": "function",
      "constant": true
    },
    {
      "inputs": [
        {
          "internalType": "string",
          "name": "name",
          "type": "string"
        },
        {
          "internalType": "string",
          "name": "isinCode",
          "type": "string"
        },
        {
          "internalType": "address",
          "name": "instrumentAddress",
          "type": "address"
        }
      ],
      "name": "listInstrument",
      "outputs": [],
      "stateMutability": "nonpayable",
      "type": "function"
    },
    {
      "inputs": [
        {
          "internalType": "string",
          "name": "isin",
          "type": "string"
        }
      ],
      "name": "unListInstrument",
      "outputs": [],
      "stateMutability": "nonpayable",
      "type": "function"
    },
    {
      "inputs": [
        {
          "internalType": "string",
          "name": "name",
          "type": "string"
        }
      ],
      "name": "getInstrumentByName",
      "outputs": [
        {
          "internalType": "address",
          "name": "instrument",
          "type": "address"
        }
      ],
      "stateMutability": "view",
      "type": "function",
      "constant": true
    },
    {
      "inputs": [
        {
          "internalType": "string",
          "name": "isinCode",
          "type": "string"
        }
      ],
      "name": "getInstrumentByIsinCode",
      "outputs": [
        {
          "internalType": "address",
          "name": "instrument",
          "type": "address"
        }
      ],
      "stateMutability": "view",
      "type": "function",
      "constant": true
    },
    {
      "inputs": [],
      "name": "getAllInstruments",
      "outputs": [
        {
          "internalType": "address[]",
          "name": "instrument",
          "type": "address[]"
        }
      ],
      "stateMutability": "view",
      "type": "function",
      "constant": true
    }
  ],
  "bytecode": "0x608060405234801561001057600080fd5b5060405161153138038061153183398101604081905261002f91610054565b600480546001600160a01b0319166001600160a01b0392909216919091179055610082565b600060208284031215610065578081fd5b81516001600160a01b038116811461007b578182fd5b9392505050565b6114a0806100916000396000f3fe608060405234801561001057600080fd5b50600436106100a95760003560e01c80639648c4ad116100715780639648c4ad14610129578063ad26deb21461013c578063c781cfed1461014f578063d95b9af214610162578063fadc086714610175578063fedb763c14610195576100a9565b806302f53219146100ae5780631ae1d1ff146100cc5780632dea6b17146100e15780633044c992146100f6578063334d00c814610116575b600080fd5b6100b66101a8565b6040516100c3919061102e565b60405180910390f35b6100df6100da366004610db3565b61020a565b005b6100e96104c3565b6040516100c3919061107b565b610109610104366004610db3565b61059c565b6040516100c3919061101a565b610109610124366004610ec3565b6105d1565b6100df610137366004610e45565b6105f7565b61010961014a366004610db3565b61080d565b6100df61015d366004610df3565b610820565b610109610170366004610db3565b610932565b610188610183366004610d92565b610946565b6040516100c39190611112565b6100df6101a3366004610d92565b6109e2565b6060600380548060200260200160405190810160405280929190818152602001828054801561020057602002820191906000526020600020905b81546001600160a01b031681526001909101906020018083116101e2575b5050505050905090565b61021333610946565b6102385760405162461bcd60e51b815260040161022f9061138f565b60405180910390fd5b60006001838360405161024c929190610f9b565b908152604051908190036020019020546001600160a01b03169050806102845760405162461bcd60e51b815260040161022f906112df565b7fcca638948b0d9bed4770d4795027984e9e84be6de2e4c9b7121b04a770166563600284846040516102b7929190610f9b565b9081526040519081900360200181206102d59186908690869061115f565b60405180910390a16000600284846040516102f1929190610f9b565b90815260405190819003602001812061030991610fab565b90815260405190819003602001812080546001600160a01b03191690556001906103369085908590610f9b565b90815260405190819003602001812080546001600160a01b03191690556002906103639085908590610f9b565b9081526020016040518091039020600061037d9190610be4565b60035460005b818110156104bc57826001600160a01b0316600382815481106103b657634e487b7160e01b600052603260045260246000fd5b6000918252602090912001546001600160a01b031614156104aa5760036103de6001846113d1565b815481106103fc57634e487b7160e01b600052603260045260246000fd5b600091825260209091200154600380546001600160a01b03909216918390811061043657634e487b7160e01b600052603260045260246000fd5b9060005260206000200160006101000a8154816001600160a01b0302191690836001600160a01b03160217905550600380548061048357634e487b7160e01b600052603160045260246000fd5b600082815260209020810160001990810180546001600160a01b03191690550190556104bc565b806104b481611423565b915050610383565b5050505050565b60606005805480602002602001604051908101604052809291908181526020016000905b82821015610593578382906000526020600020018054610506906113e8565b80601f0160208091040260200160405190810160405280929190818152602001828054610532906113e8565b801561057f5780601f106105545761010080835404028352916020019161057f565b820191906000526020600020905b81548152906001019060200180831161056257829003601f168201915b5050505050815260200190600101906104e7565b50505050905090565b6000600183836040516105b0929190610f9b565b908152604051908190036020019020546001600160a01b0316905092915050565b80516020818301810180516006825292820191909301209152546001600160a01b031681565b61060033610946565b61061c5760405162461bcd60e51b815260040161022f9061138f565b60006001600160a01b031660008686604051610639929190610f9b565b908152604051908190036020019020546001600160a01b03161461066f5760405162461bcd60e51b815260040161022f90611316565b60006001600160a01b03166001848460405161068c929190610f9b565b908152604051908190036020019020546001600160a01b0316146106c25760405162461bcd60e51b815260040161022f90611272565b80600086866040516106d5929190610f9b565b908152602001604051809103902060006101000a8154816001600160a01b0302191690836001600160a01b03160217905550806001848460405161071a929190610f9b565b908152602001604051809103902060006101000a8154816001600160a01b0302191690836001600160a01b03160217905550848460028585604051610760929190610f9b565b90815260405190819003602001902061077a929091610c20565b50600380546001810182556000919091527fc2575a0e9e593c00f959f8c92f12db2869c3395a3b0502d05e2516446f71f85b0180546001600160a01b0319166001600160a01b0383161790556040517fd81cdc6853fe602fda369a851ee3d23a4be7d39811201db705ee095c462130c0906107fe908790879087908790879061111d565b60405180910390a15050505050565b60008083836040516105b0929190610f9b565b6004546001600160a01b0316331461084a5760405162461bcd60e51b815260040161022f90611206565b6001600160a01b0381166108705760405162461bcd60e51b815260040161022f9061123b565b60006001600160a01b03166006848460405161088d929190610f9b565b908152604051908190036020019020546001600160a01b031614156108eb57600580546001810182556000919091526108e9907f036b6384b5eca791c62761152d0c79bb0604c104a5fb6f4eb0703f3154bb3db0018484610c20565b505b80600684846040516108fe929190610f9b565b90815260405190819003602001902080546001600160a01b03929092166001600160a01b0319909216919091179055505050565b6000600683836040516105b0929190610f9b565b600554600090815b818110156109d657836001600160a01b031660066005838154811061098357634e487b7160e01b600052603260045260246000fd5b9060005260206000200160405161099a9190610fab565b908152604051908190036020019020546001600160a01b031614156109c4576001925050506109dd565b806109ce81611423565b91505061094e565b5060009150505b919050565b6004546001600160a01b03163314610a0c5760405162461bcd60e51b815260040161022f90611206565b6001600160a01b038116610a325760405162461bcd60e51b815260040161022f90611358565b60055460005b81811015610bc857826001600160a01b0316600660058381548110610a6d57634e487b7160e01b600052603260045260246000fd5b90600052602060002001604051610a849190610fab565b908152604051908190036020019020546001600160a01b03161415610bb657600660058281548110610ac657634e487b7160e01b600052603260045260246000fd5b90600052602060002001604051610add9190610fab565b90815260405190819003602001902080546001600160a01b03191690556005610b076001846113d1565b81548110610b2557634e487b7160e01b600052603260045260246000fd5b9060005260206000200160058281548110610b5057634e487b7160e01b600052603260045260246000fd5b90600052602060002001908054610b66906113e8565b610b71929190610ca4565b506005805480610b9157634e487b7160e01b600052603160045260246000fd5b600190038181906000526020600020016000610bad9190610be4565b90555050610be1565b80610bc081611423565b915050610a38565b5060405162461bcd60e51b815260040161022f906112b4565b50565b508054610bf0906113e8565b6000825580601f10610c025750610be1565b601f016020900490600052602060002090810190610be19190610d1f565b828054610c2c906113e8565b90600052602060002090601f016020900481019282610c4e5760008555610c94565b82601f10610c675782800160ff19823516178555610c94565b82800160010185558215610c94579182015b82811115610c94578235825591602001919060010190610c79565b50610ca0929150610d1f565b5090565b828054610cb0906113e8565b90600052602060002090601f016020900481019282610cd25760008555610c94565b82601f10610ce35780548555610c94565b82800160010185558215610c9457600052602060002091601f016020900482015b82811115610c94578254825591600101919060010190610d04565b5b80821115610ca05760008155600101610d20565b80356001600160a01b03811681146109dd57600080fd5b60008083601f840112610d5c578081fd5b50813567ffffffffffffffff811115610d73578182fd5b602083019150836020828501011115610d8b57600080fd5b9250929050565b600060208284031215610da3578081fd5b610dac82610d34565b9392505050565b60008060208385031215610dc5578081fd5b823567ffffffffffffffff811115610ddb578182fd5b610de785828601610d4b565b90969095509350505050565b600080600060408486031215610e07578081fd5b833567ffffffffffffffff811115610e1d578182fd5b610e2986828701610d4b565b9094509250610e3c905060208501610d34565b90509250925092565b600080600080600060608688031215610e5c578081fd5b853567ffffffffffffffff80821115610e73578283fd5b610e7f89838a01610d4b565b90975095506020880135915080821115610e97578283fd5b50610ea488828901610d4b565b9094509250610eb7905060408701610d34565b90509295509295909350565b60006020808385031215610ed5578182fd5b823567ffffffffffffffff80821115610eec578384fd5b818501915085601f830112610eff578384fd5b813581811115610f1157610f11611454565b604051601f8201601f1916810185018381118282101715610f3457610f34611454565b6040528181528382018501881015610f4a578586fd5b818585018683013790810190930193909352509392505050565b6001600160a01b03169052565b60008284528282602086013780602084860101526020601f19601f85011685010190509392505050565b6000828483379101908152919050565b6000808354610fb9816113e8565b60018281168015610fd15760018114610fe25761100e565b60ff1984168752828701945061100e565b8786526020808720875b858110156110055781548a820152908401908201610fec565b50505082870194505b50929695505050505050565b6001600160a01b0391909116815260200190565b6020808252825182820181905260009190848201906040850190845b8181101561106f5783516001600160a01b03168352928401929184019160010161104a565b50909695505050505050565b6000602080830181845280855180835260408601915060408482028701019250838701855b8281101561110557878503603f1901845281518051808752885b818110156110d5578281018901518882018a015288016110ba565b818111156110e5578989838a0101525b50601f01601f1916959095018601945092850192908501906001016110a0565b5092979650505050505050565b901515815260200190565b600060608252611131606083018789610f71565b8281036020840152611144818688610f71565b91505060018060a01b03831660408301529695505050505050565b600060608252808654611171816113e8565b806060860152608060018084166000811461119357600181146111a7576111d5565b60ff1985168884015260a0880195506111d5565b8b87526020808820885b868110156111cc5781548b82018701529084019082016111b1565b8a018501975050505b505050505082810360208401526111ed818688610f71565b9150506111fd6040830184610f64565b95945050505050565b6020808252818101527f43616c6c6572206973206e6f7420746865207265676973747279206f776e6572604082015260600190565b6020808252601d908201527f43616e6e6f7420617574686f72697a65207a65726f2061646472657373000000604082015260600190565b60208082526022908201527f426f6e6420776974682074686973206973696e20616c72656164792065786973604082015261747360f01b606082015260800190565b602080825260119082015270119858dd1bdc9e481b9bdd08199bdd5b99607a1b604082015260600190565b60208082526019908201527f496e737472756d656e7420776173206e6f74206c697374656400000000000000604082015260600190565b60208082526022908201527f426f6e6420776974682074686973206e616d6520616c72656164792065786973604082015261747360f01b606082015260800190565b6020808252601f908201527f43616e6e6f7420756e617574686f72697a65207a65726f206164647265737300604082015260600190565b60208082526022908201527f43616c6c696e6720636f6e7472616374206973206e6f7420617574686f72697a604082015261195960f21b606082015260800190565b6000828210156113e3576113e361143e565b500390565b6002810460018216806113fc57607f821691505b6020821081141561141d57634e487b7160e01b600052602260045260246000fd5b50919050565b60006000198214156114375761143761143e565b5060010190565b634e487b7160e01b600052601160045260246000fd5b634e487b7160e01b600052604160045260246000fdfea2646970667358221220278ed00822a186708af702272357d4609cf122001ad1ed5b1579c77a063d46b364736f6c63430008000033",
  "immutableReferences": {},
  "source": "pragma solidity 0.8.0;\npragma experimental ABIEncoderV2;\n\nimport \"./interfaces/IInstrumentRegistry.sol\";\nimport \"./tokens/ForgeBond.sol\";\nimport \"@openzeppelin/contracts/utils/structs/EnumerableSet.sol\";\n\ncontract ForgeInstrumentRegistry is IInstrumentRegistry {\n    using EnumerableSet for EnumerableSet.AddressSet;\n\n    mapping(string => address) private instrumentsByName;\n    mapping(string => address) private instrumentsByIsinCode;\n    mapping(string => string) private isinToName;\n    address[] private instruments;\n    address private owner;\n\n    string[] private factoryTypes;\n    mapping(string => address) public factories; // factoryType => factory address\n\n    constructor(address _owner) public {\n        owner = _owner;\n    }\n\n    modifier onlyOwner() {\n        require(msg.sender == owner, \"Caller is not the registry owner\");\n        _;\n    }\n\n    modifier onlyAuthorizedFactory() {\n        require(\n            isFactoryAuthorized(msg.sender),\n            \"Calling contract is not authorized\"\n        );\n        _;\n    }\n\n    function getAllFactoryTypes() external view returns (string[] memory) {\n        return factoryTypes;\n    }\n\n    function getFactory(string calldata factoryType)\n        external\n        view\n        returns (address)\n    {\n        return factories[factoryType];\n    }\n\n    function authorizeFactory(\n        string calldata factoryType,\n        address factoryAddress\n    ) external onlyOwner {\n        require(factoryAddress != address(0), \"Cannot authorize zero address\");\n\n        if (factories[factoryType] == address(0)) {\n            factoryTypes.push(factoryType);\n        }\n\n        factories[factoryType] = factoryAddress;\n    }\n\n    function unAuthorizeFactory(address factoryAddress) external onlyOwner {\n        require(\n            factoryAddress != address(0),\n            \"Cannot unauthorize zero address\"\n        );\n\n        uint256 nbFactories = factoryTypes.length;\n        for (uint256 i = 0; i < nbFactories; i++) {\n            if (factories[factoryTypes[i]] == factoryAddress) {\n                delete factories[factoryTypes[i]];\n                factoryTypes[i] = factoryTypes[nbFactories - 1];\n                factoryTypes.pop();\n                return;\n            }\n        }\n        require(false, \"Factory not found\");\n    }\n\n    function isFactoryAuthorized(address factoryAddress)\n        public\n        view\n        returns (bool)\n    {\n        uint256 nbFactories = factoryTypes.length;\n        for (uint256 i = 0; i < nbFactories; i++) {\n            if (factories[factoryTypes[i]] == factoryAddress) {\n                return true;\n            }\n        }\n        return false;\n    }\n\n    function listInstrument(\n        string calldata name,\n        string calldata isinCode,\n        address instrumentAddress\n    ) external override onlyAuthorizedFactory {\n        require(\n            instrumentsByName[name] == address(0),\n            \"Bond with this name already exists\"\n        );\n        require(\n            instrumentsByIsinCode[isinCode] == address(0),\n            \"Bond with this isin already exists\"\n        );\n\n        instrumentsByName[name] = instrumentAddress;\n        instrumentsByIsinCode[isinCode] = instrumentAddress;\n        isinToName[isinCode] = name;\n        instruments.push(instrumentAddress);\n\n        emit InstrumentListed(name, isinCode, instrumentAddress);\n    }\n\n    function unListInstrument(string calldata isin)\n        external\n        override\n        onlyAuthorizedFactory\n    {\n        address instrumentAddress = instrumentsByIsinCode[isin];\n\n        require(instrumentAddress != address(0), \"Instrument was not listed\");\n\n        emit InstrumentUnlisted(isinToName[isin], isin, instrumentAddress);\n\n        delete instrumentsByName[isinToName[isin]];\n        delete instrumentsByIsinCode[isin];\n        delete isinToName[isin];\n\n        uint256 nbInstrument = instruments.length;\n        for (uint256 i = 0; i < nbInstrument; i++) {\n            if (instruments[i] == instrumentAddress) {\n                instruments[i] = instruments[nbInstrument - 1];\n                instruments.pop();\n                break;\n            }\n        }\n    }\n\n    function getInstrumentByName(string calldata name)\n        external\n        view\n        override\n        returns (address instrument)\n    {\n        return instrumentsByName[name];\n    }\n\n    function getInstrumentByIsinCode(string calldata isinCode)\n        external\n        view\n        override\n        returns (address instrument)\n    {\n        return instrumentsByIsinCode[isinCode];\n    }\n\n    function getAllInstruments()\n        external\n        view\n        override\n        returns (address[] memory instrument)\n    {\n        return instruments;\n    }\n\n    event InstrumentListed(string name, string isin, address instrumentAddress);\n    event InstrumentUnlisted(\n        string name,\n        string isin,\n        address instrumentAddress\n    );\n}\n",
  "sourcePath": "/home/helder/Documents/cast1/packages/cast/cast-eth-v1/contracts/ForgeInstrumentRegistry.sol",
  "compiler": {
    "name": "solc",
    "version": "0.8.0+commit.c7dfd78e.Emscripten.clang"
  },
  "schemaVersion": "3.4.3",
  "updatedAt": "2022-05-02T09:35:35.336Z",
  "networkType": "ethereum",
  "devdoc": {
    "kind": "dev",
    "methods": {},
    "version": 1
  },
  "userdoc": {
    "kind": "user",
    "methods": {},
    "version": 1
  }
}