{
  "contractName": "SettlementWorkflowLibrary",
  "abi": [
    {
      "inputs": [],
      "name": "CANCELLED",
      "outputs": [
        {
          "internalType": "uint256",
          "name": "",
          "type": "uint256"
        }
      ],
      "stateMutability": "view",
      "type": "function",
      "constant": true
    },
    {
      "inputs": [],
      "name": "CASH_TRANSFERRED",
      "outputs": [
        {
          "internalType": "uint256",
          "name": "",
          "type": "uint256"
        }
      ],
      "stateMutability": "view",
      "type": "function",
      "constant": true
    }
  ],
  "bytecode": "0x610dd961003a600b82828239805160001a60731461002d57634e487b7160e01b600052600060045260246000fd5b30600052607381538281f3fe73000000000000000000000000000000000000000030146080604052600436106100875760003560e01c80636de000cd116100655780636de000cd146100ee5780639136f9441461010e578063ae71dcdf1461012e578063ea1fa5c91461014c57610087565b80630dc72b5d1461008c578063463e4c3e146100ae5780634e8226bf146100ce575b600080fd5b81801561009857600080fd5b506100ac6100a7366004610970565b610154565b005b8180156100ba57600080fd5b506100ac6100c9366004610970565b610246565b8180156100da57600080fd5b506100ac6100e9366004610970565b610271565b8180156100fa57600080fd5b506100ac6101093660046108bd565b6102cd565b81801561011a57600080fd5b506100ac6101293660046109be565b6103f9565b610136610518565b6040516101439190610cb8565b60405180910390f35b61013661051d565b805160009081526020849052604090205461018a5760405162461bcd60e51b815260040161018190610a9e565b60405180910390fd5b80516000908152602084905260409020600501546002146101bd5760405162461bcd60e51b815260040161018190610af4565b604080820151608083015191516316038b1160e21b815273__SecurityTokenBalancesLibrary__________9263580e2c449261020292600888019290600401610c8b565b60006040518083038186803b15801561021a57600080fd5b505af415801561022e573d6000803e3d6000fd5b5050825161024192508591506005610522565b505050565b610250838261058e565b61025f838383600001516103f9565b60208101516102419084906003610695565b604081015182546001600160a01b039081169116146102a25760405162461bcd60e51b815260040161018190610c39565b6102ac838261058e565b6102bb838383600001516103f9565b60208101516102419084906001610695565b60005b81518110156103b6578181815181106102f957634e487b7160e01b600052603260045260246000fd5b60209081029190910101516060015183546001600160a01b039081169116146103345760405162461bcd60e51b815260040161018190610b51565b61036e82828151811061035757634e487b7160e01b600052603260045260246000fd5b60200260200101518561058e90919063ffffffff16565b6103a4848484848151811061039357634e487b7160e01b600052603260045260246000fd5b6020026020010151600001516103f9565b806103ae81610d4e565b9150506102d0565b50610241816000815181106103db57634e487b7160e01b600052603260045260246000fd5b6020026020010151602001516002856106959092919063ffffffff16565b6040516318366f3560e21b815260009073__SettlementRepositoryLibrary___________906360d9bcd4906104359087908690600401610caa565b60006040518083038186803b15801561044d57600080fd5b505af4158015610461573d6000803e3d6000fd5b505050506040513d6000823e601f3d908101601f1916820160405261048991908101906109e9565b60408082015160808301519151633945465360e21b815292935073__SecurityTokenBalancesLibrary__________9263e515194c926104d3926008890192909190600401610c8b565b60006040518083038186803b1580156104eb57600080fd5b505af41580156104ff573d6000803e3d6000fd5b5061051292508691508490506002610522565b50505050565b600581565b600481565b60018114806105315750600281145b8061053c5750600381145b806105475750600481145b806105525750600581145b8061055d575060ff81145b6105795760405162461bcd60e51b815260040161018190610ba5565b60009182526020929092526040902060050155565b805160008181526020849052604090205414156105bd5760405162461bcd60e51b815260040161018190610be8565b6040805160e08101825282518152602080840151818301908152848401516001600160a01b039081168486019081526060808801518316908601908152608080890151908701908152600160a0808901828152908b015160c08a019081528b5160009081528d8a529a909a208951815596519187019190915592516002860180549186166001600160a01b0319928316179055915160038601805491909516921691909117909255905160048301555160058201559251805192938493909261068d9260068501929101906106a9565b505050505050565b600091825260019092016020526040902055565b8280546106b590610d13565b90600052602060002090601f0160209004810192826106d7576000855561071d565b82601f106106f057805160ff191683800117855561071d565b8280016001018555821561071d579182015b8281111561071d578251825591602001919060010190610702565b5061072992915061072d565b5090565b5b80821115610729576000815560010161072e565b803561074d81610d8b565b919050565b805161074d81610d8b565b600082601f83011261076d578081fd5b813561078061077b82610ceb565b610cc1565b818152846020838601011115610794578283fd5b816020850160208301379081016020019190915292915050565b600082601f8301126107be578081fd5b81516107cc61077b82610ceb565b818152602085818487010111156107e1578384fd5b835b838110156107fe5785810182015183820183015281016107e3565b8381111561080e57848285850101525b509095945050505050565b600060c0828403121561082a578081fd5b60405160c0810167ffffffffffffffff828210818311171561084e5761084e610d75565b81604052829350843583526020850135602084015261086f60408601610742565b604084015261088060608601610742565b60608401526080850135608084015260a08501359150808211156108a357600080fd5b506108b08582860161075d565b60a0830152505092915050565b6000806000606084860312156108d1578283fd5b833592506020808501359250604085013567ffffffffffffffff808211156108f7578384fd5b818701915087601f83011261090a578384fd5b81358181111561091c5761091c610d75565b6109298485830201610cc1565b8181528481019250838501865b8381101561095f5761094d8c888435890101610819565b85529386019390860190600101610936565b505080955050505050509250925092565b600080600060608486031215610984578283fd5b8335925060208401359150604084013567ffffffffffffffff8111156109a8578182fd5b6109b486828701610819565b9150509250925092565b6000806000606084860312156109d2578283fd5b505081359360208301359350604090920135919050565b6000602082840312156109fa578081fd5b815167ffffffffffffffff80821115610a11578283fd5b9083019060e08286031215610a24578283fd5b610a2e60e0610cc1565b8251815260208301516020820152610a4860408401610752565b6040820152610a5960608401610752565b60608201526080830151608082015260a083015160a082015260c083015182811115610a83578485fd5b610a8f878286016107ae565b60c08301525095945050505050565b60208082526036908201527f596f752063616e27742063616e63656c2061206e6f74206578697374696e672060408201527529b2ba3a3632b6b2b73a102a3930b739b0b1ba34b7b760511b606082015260800190565b60208082526037908201527f54686520736574746c656d656e74207472616e73616374696f6e206973206e6f60408201527f7420696e20544f4b454e5f4c4f434b4544207374617465000000000000000000606082015260800190565b60208082526034908201527f64656c697665727952656365697665724163636f756e744e756d626572206d7560408201527339ba1036b0ba31b4103a37b5b2b71037bbb732b960611b606082015260800190565b60208082526023908201527f43616e206e6f742073657420737461747573203a20496e76616c69642053746160408201526274757360e81b606082015260800190565b60208082526031908201527f536574746c656d656e74205472616e73616374696f6e20616c726561647920656040820152701e1a5cdd081dda5d1a081d1a1a5cc81a59607a1b606082015260800190565b60208082526032908201527f64656c697665727953656e6465724163636f756e744e756d626572206d7573746040820152711036b0ba31b4103a37b5b2b71037bbb732b960711b606082015260800190565b9283526001600160a01b03919091166020830152604082015260600190565b918252602082015260400190565b90815260200190565b60405181810167ffffffffffffffff81118282101715610ce357610ce3610d75565b604052919050565b600067ffffffffffffffff821115610d0557610d05610d75565b50601f01601f191660200190565b600281046001821680610d2757607f821691505b60208210811415610d4857634e487b7160e01b600052602260045260246000fd5b50919050565b6000600019821415610d6e57634e487b7160e01b81526011600452602481fd5b5060010190565b634e487b7160e01b600052604160045260246000fd5b6001600160a01b0381168114610da057600080fd5b5056fea2646970667358221220292a31aeb22be17134b687d6a8961210b4b4456947925e73feffdda05e0d5d5164736f6c63430008000033",
  "immutableReferences": {},
  "source": "pragma solidity 0.8.0;\npragma experimental ABIEncoderV2;\n\nimport \"./SettlementRepositoryLibrary.sol\";\nimport \"./BasicTokenLibrary.sol\";\nimport \"./SecurityTokenBalancesLibrary.sol\";\n\nlibrary SettlementWorkflowLibrary {\n    uint256 private constant CREATED = 0x01;\n    uint256 private constant TOKEN_LOCKED = 0x02;\n    uint256 private constant CASH_RECEIVED = 0x03;\n    uint256 public constant CASH_TRANSFERRED = 0x04;\n    uint256 public constant CANCELLED = 0x05;\n    uint256 private constant ERROR = 0xFF;\n\n    uint256 private constant SUBSCRIPTION = 0x01;\n    uint256 private constant REDEMPTION = 0x02;\n    uint256 private constant TRADE = 0x03;\n\n    using SettlementRepositoryLibrary for SettlementRepositoryLibrary.SettlementTransactionRepository;\n    using SecurityTokenBalancesLibrary for SecurityTokenBalancesLibrary.SecurityTokenBalances;\n\n    function initiateDVP(\n        SettlementRepositoryLibrary.SettlementTransactionRepository\n            storage settlementTransactionRepository,\n        BasicTokenLibrary.BasicToken storage token,\n        uint256 settlementTransactionId\n    ) public {\n        SettlementRepositoryLibrary.SettlementTransaction\n            memory st = settlementTransactionRepository\n                .getSettlementTransactionById(settlementTransactionId);\n\n        token.securityTokenBalances.lock(\n            st.deliverySenderAccountNumber,\n            st.deliveryQuantity\n        );\n\n        settlementTransactionRepository.setSettlementTransactionStatus(\n            settlementTransactionId,\n            TOKEN_LOCKED\n        );\n    }\n\n    function initiateSubscription(\n        SettlementRepositoryLibrary.SettlementTransactionRepository\n            storage settlementTransactionRepository,\n        BasicTokenLibrary.BasicToken storage token,\n        SettlementRepositoryLibrary.PartialSettlementTransaction\n            memory partialSettlementTransaction\n    ) public {\n        require(\n            token.owner ==\n                partialSettlementTransaction.deliverySenderAccountNumber,\n            \"deliverySenderAccountNumber must match token owner\"\n        );\n\n        settlementTransactionRepository.createSettlementTransaction(\n            partialSettlementTransaction\n        );\n\n        initiateDVP(\n            settlementTransactionRepository,\n            token,\n            partialSettlementTransaction.txId\n        );\n\n        settlementTransactionRepository.setOperationType(\n            partialSettlementTransaction.operationId,\n            SUBSCRIPTION\n        );\n    }\n\n    function initiateTrade(\n        SettlementRepositoryLibrary.SettlementTransactionRepository\n            storage settlementTransactionRepository,\n        BasicTokenLibrary.BasicToken storage token,\n        SettlementRepositoryLibrary.PartialSettlementTransaction\n            memory partialSettlementTransaction\n    ) public {\n        settlementTransactionRepository.createSettlementTransaction(\n            partialSettlementTransaction\n        );\n\n        initiateDVP(\n            settlementTransactionRepository,\n            token,\n            partialSettlementTransaction.txId\n        );\n\n        settlementTransactionRepository.setOperationType(\n            partialSettlementTransaction.operationId,\n            TRADE\n        );\n    }\n\n    // Test\n\n    function initiateRedemption(\n        SettlementRepositoryLibrary.SettlementTransactionRepository\n            storage settlementTransactionRepository,\n        BasicTokenLibrary.BasicToken storage token,\n        SettlementRepositoryLibrary.PartialSettlementTransaction[]\n            memory partialSettlementTransactions\n    ) public {\n        for (uint256 i = 0; i < partialSettlementTransactions.length; i++) {\n            require(\n                token.owner ==\n                    partialSettlementTransactions[i]\n                        .deliveryReceiverAccountNumber,\n                \"deliveryReceiverAccountNumber must match token owner\"\n            );\n\n            settlementTransactionRepository.createSettlementTransaction(\n                partialSettlementTransactions[i]\n            );\n\n            initiateDVP(\n                settlementTransactionRepository,\n                token,\n                partialSettlementTransactions[i].txId\n            );\n        }\n\n        settlementTransactionRepository.setOperationType(\n            partialSettlementTransactions[0].operationId,\n            REDEMPTION\n        );\n    }\n\n    function cancelSettlementTransaction(\n        SettlementRepositoryLibrary.SettlementTransactionRepository\n            storage settlementTransactionRepository,\n        BasicTokenLibrary.BasicToken storage token,\n        SettlementRepositoryLibrary.PartialSettlementTransaction\n            memory partialSettlementTransaction\n    ) public {\n        require(\n            settlementTransactionRepository\n                .settlementTransactionById[partialSettlementTransaction.txId]\n                .txId != 0,\n            \"You can't cancel a not existing Settlement Transaction\"\n        );\n\n        require(\n            settlementTransactionRepository\n                .settlementTransactionById[partialSettlementTransaction.txId]\n                .status == TOKEN_LOCKED,\n            \"The settlement transaction is not in TOKEN_LOCKED state\"\n        );\n\n        token.securityTokenBalances.unlock(\n            partialSettlementTransaction.deliverySenderAccountNumber,\n            partialSettlementTransaction.deliveryQuantity\n        );\n        settlementTransactionRepository.setSettlementTransactionStatus(\n            partialSettlementTransaction.txId,\n            CANCELLED\n        );\n    }\n}\n",
  "sourcePath": "/home/helder/Documents/cast1/packages/cast/cast-eth-v1/contracts/libraries/SettlementWorkflowLibrary.sol",
  "compiler": {
    "name": "solc",
    "version": "0.8.0+commit.c7dfd78e.Emscripten.clang"
  },
  "schemaVersion": "3.4.3",
  "updatedAt": "2022-05-02T09:35:35.475Z",
  "networkType": "ethereum",
  "devdoc": {
    "kind": "dev",
    "methods": {},
    "version": 1
  },
  "userdoc": {
    "kind": "user",
    "methods": {},
    "version": 1
  }
}