{
  "contractName": "SettlementRepositoryLibrary",
  "abi": [
    {
      "inputs": [],
      "name": "CANCELLED",
      "outputs": [
        {
          "internalType": "uint256",
          "name": "",
          "type": "uint256"
        }
      ],
      "stateMutability": "view",
      "type": "function",
      "constant": true
    },
    {
      "inputs": [],
      "name": "CASH_TRANSFERRED",
      "outputs": [
        {
          "internalType": "uint256",
          "name": "",
          "type": "uint256"
        }
      ],
      "stateMutability": "view",
      "type": "function",
      "constant": true
    }
  ],
  "bytecode": "0x6103af61003a600b82828239805160001a60731461002d57634e487b7160e01b600052600060045260246000fd5b30600052607381538281f3fe73000000000000000000000000000000000000000030146080604052600436106100615760003560e01c806360d9bcd4146100665780636ecf50c61461008f578063ae71dcdf146100af578063d6f40512146100b7578063ea1fa5c9146100ca575b600080fd5b61007961007436600461026b565b6100d2565b604051610086919061028c565b60405180910390f35b6100a261009d36600461026b565b6101db565b6040516100869190610335565b6100a26101f1565b6100a26100c536600461026b565b6101f6565b6100a2610217565b6100da61021c565b60008281526020848152604091829020825160e0810184528154815260018201549281019290925260028101546001600160a01b03908116938301939093526003810154909216606082015260048201546080820152600582015460a0820152600682018054839160c08401916101509061033e565b80601f016020809104026020016040519081016040528092919081815260200182805461017c9061033e565b80156101c95780601f1061019e576101008083540402835291602001916101c9565b820191906000526020600020905b8154815290600101906020018083116101ac57829003601f168201915b50505050508152505091505092915050565b6000908152600191909101602052604090205490565b600581565b60009081526020828152604080832060019081015484529093019052205490565b600481565b6040518060e00160405280600081526020016000815260200160006001600160a01b0316815260200160006001600160a01b031681526020016000815260200160008152602001606081525090565b6000806040838503121561027d578182fd5b50508035926020909101359150565b60006020808352835181840152808401516040840152604084015160018060a01b0380821660608601528060608701511660808601525050608084015160a084015260a084015160c084015260c084015160e080850152805180610100860152835b8181101561030b57828101840151868201610120015283016102ee565b8181111561031d578461012083880101525b50601f01601f19169390930161012001949350505050565b90815260200190565b60028104600182168061035257607f821691505b6020821081141561037357634e487b7160e01b600052602260045260246000fd5b5091905056fea2646970667358221220409a685488dc44727fb3b52a251cb927448c3c6173e067b9b887661e08aaf8bc64736f6c63430008000033",
  "immutableReferences": {},
  "source": "pragma solidity 0.8.0;\npragma experimental ABIEncoderV2;\n\nimport \"../interfaces/IOperatorManager.sol\";\nimport \"./SecurityTokenBalancesLibrary.sol\";\nimport \"./BasicTokenLibrary.sol\";\n\nlibrary SettlementRepositoryLibrary {\n    using SecurityTokenBalancesLibrary for SecurityTokenBalancesLibrary.SecurityTokenBalances;\n    using SettlementRepositoryLibrary for SettlementRepositoryLibrary.SettlementTransactionRepository;\n\n    using BasicTokenLibrary for BasicTokenLibrary.BasicToken;\n\n    uint256 private constant CREATED = 0x01;\n    uint256 private constant TOKEN_LOCKED = 0x02;\n    uint256 private constant CASH_RECEIVED = 0x03;\n    uint256 public constant CASH_TRANSFERRED = 0x04;\n    uint256 public constant CANCELLED = 0x05;\n    uint256 private constant ERROR = 0xFF;\n\n    struct SettlementTransactionRepository {\n        mapping(uint256 => SettlementTransaction) settlementTransactionById; // mapping ( settlementtransactionId => settlementtransaction)\n        mapping(uint256 => uint256) operationTypeByOperationId; // operationId -> operationType\n    }\n\n    struct SettlementTransaction {\n        uint256 txId;\n        uint256 operationId;\n        address deliverySenderAccountNumber;\n        address deliveryReceiverAccountNumber;\n        uint256 deliveryQuantity;\n        uint256 status;\n        string txHash;\n    }\n\n    struct PartialSettlementTransaction {\n        uint256 txId;\n        uint256 operationId;\n        address deliverySenderAccountNumber; // redemption investor - subscription issuer\n        address deliveryReceiverAccountNumber; // redemption issuer - subscription investor\n        uint256 deliveryQuantity;\n        string txHash;\n    }\n\n    function getSettlementTransactionById(\n        SettlementTransactionRepository storage settlementTransactionRepository,\n        uint256 id\n    ) public view returns (SettlementTransaction memory) {\n        SettlementTransaction\n            storage settlementTransaction = settlementTransactionRepository\n                .settlementTransactionById[id];\n\n        return settlementTransaction;\n        // the return will be copied on memory to ensure no unwanted mutation\n        // can be done. This have an impact on gas consumption as memory\n        // expansion cost gas.\n    }\n\n    function setSettlementTransactionStatus(\n        SettlementTransactionRepository storage settlementTransactionRepository,\n        uint256 txId,\n        uint256 status\n    ) internal {\n        require(\n            status == CREATED ||\n                status == TOKEN_LOCKED ||\n                status == CASH_RECEIVED ||\n                status == CASH_TRANSFERRED ||\n                status == CANCELLED ||\n                status == ERROR,\n            \"Can not set status : Invalid Status\"\n        );\n\n        SettlementTransaction\n            storage settlementTransaction = settlementTransactionRepository\n                .settlementTransactionById[txId];\n        settlementTransaction.status = status;\n    }\n\n    function createSettlementTransaction(\n        SettlementTransactionRepository storage settlementTransactionRepository,\n        PartialSettlementTransaction memory partialSettlementTransaction\n    ) internal {\n        require(\n            settlementTransactionRepository\n                .settlementTransactionById[partialSettlementTransaction.txId]\n                .txId != partialSettlementTransaction.txId,\n            \"Settlement Transaction already exist with this id\"\n        );\n\n        SettlementTransaction\n            memory newSettlementTransaction = SettlementTransaction({\n                txId: partialSettlementTransaction.txId,\n                operationId: partialSettlementTransaction.operationId,\n                deliverySenderAccountNumber: partialSettlementTransaction\n                    .deliverySenderAccountNumber,\n                deliveryReceiverAccountNumber: partialSettlementTransaction\n                    .deliveryReceiverAccountNumber,\n                deliveryQuantity: partialSettlementTransaction.deliveryQuantity,\n                txHash: partialSettlementTransaction.txHash,\n                status: CREATED\n            });\n        settlementTransactionRepository.settlementTransactionById[\n                partialSettlementTransaction.txId\n            ] = newSettlementTransaction;\n    }\n\n    // Operation type management\n\n    function getOperationType(\n        SettlementTransactionRepository storage settlementTransactionRepository,\n        uint256 _operationId\n    ) external view returns (uint256) {\n        return\n            settlementTransactionRepository.operationTypeByOperationId[\n                _operationId\n            ];\n    }\n\n    function getOperationTypeForSettlementTransaction(\n        SettlementTransactionRepository storage settlementTransactionRepository,\n        uint256 _settlementTransactionId\n    ) external view returns (uint256) {\n        return\n            settlementTransactionRepository.operationTypeByOperationId[\n                settlementTransactionRepository\n                    .settlementTransactionById[_settlementTransactionId]\n                    .operationId\n            ];\n    }\n\n    function setOperationType(\n        SettlementTransactionRepository storage settlementTransactionRepository,\n        uint256 _operationId,\n        uint256 _operationType\n    ) internal {\n        settlementTransactionRepository.operationTypeByOperationId[\n                _operationId\n            ] = _operationType;\n    }\n}\n",
  "sourcePath": "/home/helder/Documents/cast1/packages/cast/cast-eth-v1/contracts/libraries/SettlementRepositoryLibrary.sol",
  "compiler": {
    "name": "solc",
    "version": "0.8.0+commit.c7dfd78e.Emscripten.clang"
  },
  "schemaVersion": "3.4.3",
  "updatedAt": "2022-05-02T09:35:35.399Z",
  "networkType": "ethereum",
  "devdoc": {
    "kind": "dev",
    "methods": {},
    "version": 1
  },
  "userdoc": {
    "kind": "user",
    "methods": {},
    "version": 1
  }
}